:020000040800F2
:1000000030290020A10100084B1D0008EB1B00084F
:10001000491D00080F0300087124000800000000BB
:1000200000000000000000000000000009010008BE
:1000300083030008000000004D010008211E000895
:10004000BB010008BB010008BB010008BB010008A0
:10005000BB010008BB010008BB010008BB01000890
:10006000BB010008BB010008BB010008BB01000880
:10007000110300081D0300082903000835030008C8
:10008000410300084D030008BB010008BB01000844
:10009000BB010008BB010008BB010008BB01000850
:1000A00000000000BB010008BB010008BB01000804
:1000B000ED1E0008BB010008BB010008BB010008E1
:1000C000BB010008BB010008BB010008BB01000820
:1000D000BB0100084D2400085924000865240008CD
:1000E000BB010008BB010008BB010008BB01000800
:1000F000BB010008DFF80CD000F0D8F8004800473A
:10010000E92F000830290020224B19680868B0E860
:10011000F00F80F30988BFF36F8F4FF0000080F37A
:1001200011884EF00D0E7047000000000648006870
:10013000006880F3088862B661B6BFF34F8FBFF3E3
:100140006F8F00DF00BF00BF08ED00E0EFF3098014
:10015000BFF36F8F0F4B1A6820E9F00F106008B5DE
:100160004FF0500080F31188BFF34F8FBFF36F8FB4
:1001700004F088FE4FF0000080F31188BDE80840CD
:1001800019680868B0E8F00F80F30988BFF36F8F33
:10019000704700BFD4000020EFF3058070470000D7
:1001A0000648804706480047FEE7FEE7FEE7FEE711
:1001B000FEE7FEE7FEE7FEE7FEE7FEE79D1E00081E
:1001C000F500000840EA01039B0703D009E008C9D5
:1001D000121F08C0042AFAD203E011F8013B00F80C
:1001E000013B521EF9D27047D2B201E000F8012B58
:1001F000491EFBD270470022F6E710B513460A46A7
:1002000004461946FFF7F0FF204610BD421C10F8C7
:10021000011B0029FBD1801A7047034611F8012BFE
:1002200000F8012B002AF9D11846704730B5054671
:100230000020034600E05B1C934205D2EC5CC85CE6
:10024000201A01D1002CF6D130BD2DE9F05F054612
:10025000002092469B4688460646814640241BE085
:10026000284641464746224600F041F853465A4642
:10027000C01A914110D311461846224600F028F8C2
:100280002D1A67EB01084F4622460120002100F09D
:100290001FF817EB00094E41201EA4F10104DFDC1A
:1002A000484631462A464346BDE8F09F064C074D76
:1002B00006E0E06840F0010394E807009847103436
:1002C000AC42F6D3FFF71AFF0C5C00082C5C000868
:1002D000202A04DB203A00FA02F100207047914006
:1002E000C2F1200320FA03F3194390407047202AFB
:1002F00004DB203A21FA02F00021704721FA02F3D0
:10030000D040C2F120029140084319467047FEE7F1
:10031000014800F04FB8000048070020014800F0F5
:1003200049B8000004070020014800F043B800006D
:1003300038060020014800F03DB80000F405002018
:10034000014800F037B800007C060020014800F0AA
:1003500031B80000C006002030B590F840500124AC
:10036000AC40C56B6C60046863604368102B036825
:1003700003D099600068C26030BD9A600068C160B7
:1003800030BD704701680A6822F00E020A600168F9
:100390000A6822F001020A6090F84020C36B012134
:1003A00001FA02F25A6080F82110002180F8201032
:1003B00008467047F0B4C16B0D6801680C68066CA4
:1003C000042202FA06F32B420FD063070DD50B6807
:1003D0009B0603D40B6823F004030B6090F84010D5
:1003E0008A40C16B4A60C16A1BE0022303FA06F728
:1003F0002F424FF0000C4FF0010216D0A70714D582
:100400000C68A40605D40C6824F00A040C6080F87B
:10041000212090F840108B40C16B4B6080F820C0C9
:10042000816A002918D0F0BC08470823B3402B424A
:1004300012D0230710D50B6823F00E030B6090F841
:100440004010C36B02FA01F15960826380F82120E9
:1004500080F820C0016BE4E7F0BC704730B548B3CA
:1004600008C8154914221944B1FBF2F18900C1638F
:1004700012498163022141771A6843F6F0718A4379
:10048000D0E900142143D0E902452C4321430469FB
:1004900021434469214384692143114319600021A8
:1004A00041628162C1620163416301224277017747
:1004B000084630BD012030BDF89FFDBF00600240FE
:1004C00070B5044690F82000002501280CD00120CA
:1004D00084F8200094F821600020012E06D084F8D2
:1004E00020000225284670BD022070BD022684F837
:1004F0002160A0632068066826F001060660204699
:10050000FFF72AFFE06A00282068016802D041F066
:100510000E0106E021F0040101602068016841F04D
:100520000A0101602068016841F001010160D9E71A
:100530002DE9F84FDFF864B100234FF0010C4FF0C4
:10054000030A4FF00F090BF1040EA0E00CFA03F6BA
:10055000324072D04C68022C01D0122C0ED1DC0833
:1005600000EB8408D8F820405D07EF0E09FA07F584
:10057000AC430D69BD402543C8F8205007685D00B5
:1005800091F804800AFA05F408F00308A74308FA72
:1005900005F848EA0708C0F800804F68012F05D029
:1005A000022F03D0112F01D0122F11D18768D1F85B
:1005B0000C80A74308FA05F848EA0708C0F8088045
:1005C0004768B7430E79C6F300169E403E43466027
:1005D000C668A6438C68AC403443C4604C68E400F1
:1005E00054D52F4C256845F001052560246823F07B
:1005F000030504F0010400942A4C2544AF689C07CD
:10060000240F09FA04F6B743274EB04201D1002661
:1006100015E0264EB04201D1012610E0244EB04232
:1006200001D102260BE0234EB04201D1032606E0A1
:10063000214EB04202D1042601E027E00526A64063
:100640003E43AE60DBF800405D464E689443F603DF
:1006500000D514432C60DEF8004075464E68944384
:10066000B60300D514432C600C4D08352C684E6839
:100670009443F60200D514432C60084D0C352C68C9
:100680004E689443B60200D514432C605B1C0A6884
:1006900032FA03F47FF45AAFBDE8F88F000401404A
:1006A00020380240000001400000024000040240E7
:1006B00000080240000C024000100240006908409F
:1006C00000D0012070470AB1816170470904FBE73F
:1006D0000148006870470000A0000020024801683F
:1006E000491C016070470000A000002010B50320E5
:1006F00000F0B4F8002000F005F800F03BF800200E
:1007000010BD000000B5014687B000221C2000F09B
:1007100085F81C2000F076F81348016841F00101CB
:100720000160006805A900F001000690684600F02D
:1007300091F900F0B5F90D494FF08042B0FBF1F1AD
:100740000B48491E0260416040F2E7320021C0E9D7
:100750000321816000F0DAFD10B1012007B000BD77
:10076000034800F0EFFDF9E72438024040420F0053
:100770008C070020224808B5016841F00041016063
:10078000016801F000410091011F0A6842F0010276
:100790000A60096801F001010091016841F080518F
:1007A0000160006800F080500090032000F056F8CF
:1007B000002211466FF00B0000F030F800221146C5
:1007C0006FF00A0000F02AF8002211466FF00900CD
:1007D00000F024F800221146501F00F01FF80022FC
:1007E0001146101F00F01AF800220F21901E00F091
:1007F00015F800220F21BDE80840501E00F00EB889
:100800002438024000F01F0201219140400980007D
:1008100000F1E020C0F8001170470000F0B40E4B6A
:100820001B680C46C3F30223C3F10705042D00D94E
:100830000425191D072901D2002300E0DB1E012633
:1008400006FA05F1491E214099409E40761E164049
:100850003143F0BC01F07ABA0CED00E0064900F03B
:10086000070208684FF6FF03184040EA0220034AD7
:1008700010430860704700000CED00E00000FA052E
:100880002DE9F047DFF8BC8105460E46D8F8000098
:1008900000F00100B04214D2012E05D1D8F80010AA
:1008A00041F00401C8F80010D8F8001021F001014F
:1008B0003143C8F80010D8F8000000F00100B04241
:1008C00071D12878604C800705D52068A96820F090
:1008D000F000084320602878C00771D05A4A5A4B6C
:1008E00069680120083A2C33022910D003292ED040
:1008F00001292FD05FEA402797FAA7FCBCFA8CFCAD
:100900004CF0200C5FEA5C1C04D0126803E04FF44A
:100910000037F1E71A6897FAA7F3B3FA83F303F005
:100920001F039840024262D0206820F00300084371
:100930002060FFF7CDFE6968074641F28830022942
:1009400010D003291CD00129814626D034E04FF075
:100950000077D1E70227CFE7FFF7BAFEC11B494571
:1009600001D926E081462068C0F381000228F3D136
:1009700026E000BFFFF7ACFEC11B494501D918E0D6
:1009800081462068C0F381000328F3D118E000BF3E
:10099000FFF79EFEC11B49450BD82068C0F38100BC
:1009A0000128F5D10CE022E0FFF792FEC11B49457A
:1009B00002D90320BDE8F087206810F00C0FF3D1B6
:1009C000D8F80010404601F00101B14211D9012EC2
:1009D00003D1016841F004010160016821F00101C7
:1009E00031430160006800F00100B04201D00120F5
:1009F000E0E72878400705D52068E96820F4E06042
:100A0000084320602878000706D52068296920F46B
:100A1000605040EAC100206000F072F82168F022C6
:100A200092FAA2F201F0F001B2FA82F2D140074A42
:100A3000515CC840064908600020FFF763FE0020B3
:100A4000B8E70000003C024008380240DD5A0008C8
:100A5000000000200F2202600C4A136803F0030319
:100A60004360136803F0F0038360136803F4E063EA
:100A7000C36012684FF4E06303EAD20202610448E3
:100A8000006800F00100086070470000083802406C
:100A9000003C024001480068704700000000002050
:100AA00008480949006809684FF4E06292FAA2F226
:100AB00001F4E061B2FA82F2D140044A515CC840CC
:100AC000704700000000002008380240ED5A00087E
:100AD00008480949006809684FF4605292FAA2F286
:100AE00001F46051B2FA82F2D140044A515CC8402C
:100AF000704700000000002008380240ED5A00084E
:100B00001B4A11681B4801F00C03042B12D0082B60
:100B100010D00C2B0FD0101F006800F460414FF470
:100B2000604090FAA0F0B0FA80F0C1404FF400406D
:100B3000491C884070474FF4701393FAA3F301F4F3
:100B40007010B3FA83F3D8400B4B01F440011268E4
:100B5000185C4FF4400393FAA3F3B3FA83F3D9403C
:100B6000D203044A491C5043B0FBF1F07047000027
:100B7000083802400024F400D45A00082DE9F84F48
:100B800007460078FB4EFC4DC0074FF0010428D00B
:100B9000F848083001684FF40038C1F38101022998
:100BA00007D00168C1F3810103291BD10068C0038C
:100BB00018D598FAA8F0B0FA80F040F0200040096B
:100BC00001D0306800E0286898FAA8F1B1FA81F104
:100BD00001F01F0104FA01F108425CD07868002896
:100BE0007BD058E0786801280AD008B1052811D0D8
:100BF000306820F480303060306820F4802002E0DB
:100C0000306840F480303060786828B3FFF760FDCA
:100C100081460BE0306840F480203060F0E700BF90
:100C2000FFF756FDA0EB0900642872D898FAA8F0E7
:100C3000B0FA80F040F02000400901D0306800E0B8
:100C4000286898FAA8F1B1FA81F101F01F0104FABD
:100C500001F10842E4D01EE0FFF73AFD814605E0CD
:100C6000FFF736FDA0EB09006428DED898FAA8F05B
:100C7000B0FA80F040F02000400901D0306800E078
:100C8000286898FAA8F1B1FA81F101F01F0104FA7D
:100C900001F10842E4D13878DFF8E08280074FF0B4
:100CA000000B4FF002095FD5B24808300168C1F36C
:100CB0008101012907D00168C1F3810103291CD1F9
:100CC0000068C00319D499FAA9F0B0FA80F040F096
:100CD0002000400902D0306801E086E0286899FAD7
:100CE000A9F1B1FA81F101F01F0104FA01F1084202
:100CF0002BD0F868012878D127E0F868A8B394FAD7
:100D0000A4F0B0FA80F048F82040FFF7E1FC8246FA
:100D100006E066E1FFF7DCFCA0EB0A00022884D8BD
:100D200099FAA9F1B1FA81F141F02001490901D004
:100D3000316800E0296899FAA9F0B0FA80F000F073
:100D40001F0004FA00F00142E4D08A48001D016847
:100D50004FF4F85393FAA3F33A69B3FA83F321F407
:100D6000F8519A401143016025E0FFE794FAA4F19D
:100D7000B1FA81F148F821B0FFF7AAFC824605E0FC
:100D8000FFF7A6FCA0EB0A000228C8D899FAA9F040
:100D9000B0FA80F040F02000400901D0306800E057
:100DA000286899FAA9F1B1FA81F101F01F0104FA5A
:100DB00001F10842E4D138784FF4007AC0067CD5BE
:100DC0006C480830006810F00C0F0FD0B9694FF470
:100DD0008070002972D090FAA0F0B0FA80F048F844
:100DE0002040FFF775FC00907EE087E09AFAAAF0B9
:100DF000B0FA80F040F02000400901D0306800E0F7
:100E000028689AFAAAF1B1FA81F101F01F0104FAF7
:100E100001F1084202D0B86900286FD05548396AFC
:100E2000001D006800F4604081421AD9084600F0B5
:100E30009DFF002862D14F48001D01683A6A21F4E5
:100E400060411143016001684FF07F4393FAA3F3BF
:100E5000FA69B3FA83F321F07F419A4011430160AC
:100E600018E04448001D026822F460420A43026010
:100E700001684FF07F4393FAA3F3FA69B3FA83F35F
:100E800021F07F419A4011430160386A00F06EFF03
:100E90000028CFD14FF4604191FAA1F1386AB1FA3C
:100EA00081F1C8404FF40041401C81403148083076
:100EB0000068F02200F0F00001E070E040E092FAFB
:100EC000A2F2B2FA82F2D0402D4A105CC1402D4805
:100ED00001600020FFF716FC61E000BFFFF7F8FBA0
:100EE0000099401A02287CD89AFAAAF0B0FA80F049
:100EF00040F02000400902D0306801E0BCE12868E1
:100F00009AFAAAF1B1FA81F101F01F0104FA01F194
:100F10000842E3D01748001D01683A6A21F4604195
:100F20001143016001684FF07F4393FAA3F3FA691C
:100F3000B3FA83F321F07F419A40114301602EE020
:100F400090FAA0F0B0FA80F048F820B0FFF7C0FBAC
:100F5000009005E0FFF7BCFB0099401A0228C2D8B8
:100F60009AFAAAF0B0FA80F040F0200040090BD0C5
:100F700030680AE00038024034380240000047423E
:100F8000DD5A00080000002028689AFAAAF1B1FA98
:100F900081F101F01F0104FA01F10842DAD1387839
:100FA000000753D5786948B394FAA4F0B0FA80F0FA
:100FB00008EB8000C0F88046FFF78AFB009005E050
:100FC000FFF786FB0099401A02288CD899FAA9F0FD
:100FD000B0FA80F040F04000B4EB501F02D130680E
:100FE00001E08EE0286899FAA9F1B1FA81F101F0E7
:100FF0001F0104FA01F21042E2D027E094FAA4F1B2
:10100000B1FA81F108EB8101C1F880B6FFF760FB0E
:10101000009005E0FFF75CFB0099401A022870D8A9
:1010200099FAA9F0B0FA80F040F04000B4EB501FFC
:1010300001D1306800E0286899FAA9F1B1FA81F18C
:1010400001F01F0104FA01F21042E3D138784007A1
:101050007BD59B484FF000090068C0000AD498482F
:10106000016841F08051016000684FF0010900F013
:101070008050009093480168C90511D4016841F47B
:1010800080710160FFF724FB009005E0FFF720FB73
:101090000099401A642834D88A480068C005F5D5FC
:1010A000B86801280AD008B1052811D0286820F4B2
:1010B00080702860286820F4806002E0286840F48E
:1010C00080702860B86848B3FFF702FB00900DE01D
:1010D000286840F480602860F0E700BFFFF7F8FA66
:1010E0000099411A41F2883081420AD89AFAAAF04E
:1010F000B0FA80F040F04000B4EB501F02D13068ED
:1011000001E095E028689AFAAAF1B1FA81F101F0BC
:101110001F0104FA01F21042E0D022E0FFF7D8FAF2
:10112000009007E0FFF7D4FA0099411A41F28830A5
:1011300081427DD89AFAAAF0B0FA80F040F04000DF
:10114000B4EB501F02D1306801E012E028689AFA2F
:10115000AAF1B1FA81F101F01F0104FA01F2104283
:10116000E0D1B9F1000F04D05548016821F0805159
:101170000160786AE8B3DFF84891A9F11C09D9F851
:101180000010C1F38101032976D002284FF080714D
:101190004FF0007A58460BD091FAA1F1B1FA81F1E3
:1011A00048F82100FFF794FAB046074656466DE02E
:1011B0004FF0807191FAA1F1B1FA81F18A004249B0
:1011C0005050FFF785FAB3468046564606E000BF0A
:1011D000FFF77EFAA0EB0800022854D896FAA6F092
:1011E000B0FA80F040F02000400903D0DBF80000A6
:1011F00001E061E0286896FAA6F1B1FA81F101F008
:101200001F0104FA01F10842E2D1D7E90A103A6B52
:10121000D9F80030014323F47D031A431143C9F880
:1012200000104FF0807090FAA0F0B0FA80F000E06B
:1012300029E0810024480C50FFF74AFA074604E0F1
:10124000FFF746FAC01B02281DD896FAA6F0B0FA9E
:1012500080F040F02000400902D0DBF8000000E000
:10126000286896FAA6F1B1FA81F101F01F0104FA9B
:1012700001F10842E4D01FE020E000BFFFF728FAA8
:10128000C01B022802D90320BDE8F88F96FAA6F009
:10129000B0FA80F040F02000400902D0D8F80000F9
:1012A00000E0286896FAA6F1B1FA81F101F01F0179
:1012B00004FA01F10842E1D10020E5E70120E3E76B
:1012C0002438024000700040000047424FF0E02107
:1012D0000428086903D020F004000861704740F03A
:1012E0000400FAE710B5401EB0F1807F01D3012061
:1012F00010BD4FF0E02460610F21601700F026FD63
:101300000020A06107202061002010BD10B504005E
:1013100003D094F8350010B107E0012010BD002083
:1013200084F83400204600F00CF8022084F83500E0
:10133000211D206800F0E0FD012084F83500002028
:1013400010BD70470168CA6842F00102CA600068B7
:10135000016841F00101016000207047704770B5DD
:101360000446006801694FF00005C943890715D498
:10137000C168C943890711D4E91E016101202075A4
:10138000206880698007204602D0FFF7E7FF04E06D
:1013900000F078F8204600F076F82575206801699D
:1013A000C943490717D4C168C943490713D46FF02B
:1013B00004010161022020752068806910F4407FDB
:1013C000204602D0FFF7CAFF04E000F05BF8204699
:1013D00000F059F8257520680169C943090716D43A
:1013E000C168C943090712D46FF0080101610420E4
:1013F00020752068C0698007204602D0FFF7AEFF45
:1014000004E000F03FF8204600F03DF82575206824
:101410000169C943C90617D4C168C943C90613D4B1
:101420006FF010010161082020752068C06910F478
:10143000407F204602D0FFF791FF04E000F022F841
:10144000204600F020F8257520680169C943C907C6
:1014500008D1C168C943C90704D1891E016120466A
:1014600000F012F820680169C943490609D4C1682F
:10147000C943490605D46FF040010161204600F0E0
:101480000AF870BD704770470068B0F1804F01D115
:10149000FFF724B97047704710B5044600684169EA
:1014A00021F0C0014161206B08B1FEF76BFF606B5A
:1014B00008B1FEF767FF012084F83900002010BD55
:1014C0002DE9F84F064600201C4FDFF874A00446B3
:1014D000A7F108084FF08059CDF8000004EB840014
:1014E00007EBC005A868B04221D1294615A001F03C
:1014F00009F8E98B6A46D8F8000003F073FD38B1AB
:10150000009828B1CAF80090BFF34F8FBFF36F8FD8
:10151000A98C6A46D8F8040003F064FD38B100983D
:1015200028B1CAF80090BFF34F8FBFF36F8F641CD0
:10153000E4B2032CD2D3BDE8F88F000014000020E1
:1015400004ED00E025732072656365697665206FA0
:10155000722073656E64206661696C0A0000000089
:1015600038B504460068016811F0010FC16801F444
:10157000807104D019B1E16B41F00101E1630168B0
:10158000C1F34002416901F0010122B119B1E26BDE
:1015900042F00402E2630268C2F3800222B119B190
:1015A000E26B42F00202E2630268C2F3C00222B1BF
:1015B00019B1E16B41F00801E1630168C068C1F352
:1015C000401100F0200019B110B1204600F01EFDBE
:1015D00021680868C968C0F3001001F0100118B153
:1015E00011B1204600F045FF21680868C968C0F3C2
:1015F000C01001F0800118B111B1204600F0AAFE20
:1016000021680868CA68C0F3801002F04002012512
:1016100070B16AB1CA68204622F04002CA6094F8EC
:101620003910322911D080F8395000BF00F0AEFADD
:10163000E06B002808D0206801684068009084F8BA
:1016400039502046FFF73CFF38BD222180F8391081
:10165000ECE770B5040004D094F83900002510B10F
:1016600006E0012070BD84F83850204600F020F8D4
:10167000022084F839002068C16821F40051C1605B
:10168000204600F017FD2068016921F490410161B6
:101690002068416921F02A0141612068C16841F454
:1016A0000051C160E563012084F83900002070BD5D
:1016B0002DE9F04704460068DFF80C820221012280
:1016C0000323DFF808A210270025802686B04FF0FC
:1016D000070C404549D17E48D0F8008048F4804846
:1016E000C0F80080006800F48040059058028DE842
:1016F0000F1069465046FEF71BFFDFF8DC91754975
:101700004846B046C0E90015C0E90256C9F8105075
:10171000C9F81450C9F81850C9F81C50FEF79EFEBD
:1017200018B18B216DA000F0EBFE6A48724EC4F830
:1017300034901438C9F824403060C6E90175C6E910
:1017400003857561B5613046F561FEF787FE18B116
:101750009B2162A000F0D4FE2663002205212520F3
:101760007462FFF75BF8252051E0DFF89081DFF825
:101770006091404509F104094ED1D9F8008048F440
:101780000038C9F80080D9F8000000F40030059056
:101790000C208DE80F1069465046FEF7C9FEDFF8B1
:1017A00060914C4948461431C0E90015C0E9025621
:1017B000C9F81050C9F81450C9F81850B046C9F803
:1017C0001C50FEF74BFE18B1C62144A000F098FE55
:1017D00040484C4EC4F834902830C9F8244030605A
:1017E000C6E90175C6E903857561B5613046F561E5
:1017F000FEF734FE18B1D62138A000F081FE266332
:101800000022052126207462FFF708F82620FEF743
:10181000F9FF06B0BDE8F087DFF8EC804045F8D16D
:10182000D9F8008048F48028C9F80080D9F8000071
:1018300000F4802005904FF440608DE80F10694659
:101840003248FEF775FEDFF8C88022494046283945
:10185000C0E90015C0E90256C8F81050C8F8145085
:10186000C8F81850C8F81C50FEF7F8FD20B140F237
:1018700001111AA000F044FEC4F83480C8F82440D6
:10188000DFF89080134940463C39C0E90256C8F859
:101890001050C8F81450C8F81850C8E90017C8F814
:1018A0001C50FEF7DBFD20B140F211110BA000F03F
:1018B00027FEC4F83080002205212720C8F82440E4
:1018C000FEF7ACFF2720A2E70038014000000240ED
:1018D0002038024058600240F40500202E2E2F537D
:1018E00072632F73746D33326C3178785F68616C1A
:1018F0005F6D73702E6300003806002000440040C6
:101900007C060020C0060020004800400004024081
:10191000040700204807002070B5044690F83900FD
:10192000012801D0122832D169B362B394F838008B
:1019300001282CD0012084F83800A162A28500255E
:10194000E56394F8390012281FD0222084F839006A
:10195000636B10489862636B0F48D862636B0F48E3
:10196000186308461346666B216802463046091D17
:10197000FEF7A6FD2068416941F04001416184F80D
:101980003850002070BD012070BD3220DEE70220FB
:1019900070BD0000951F0008CB1F0008651F0008E0
:1019A00010B50446FFF7B8FF002804D12168CA68C3
:1019B00042F01002CA6010BD704770472DE9F8432D
:1019C00007460020DFF860800546009005EB8501A2
:1019D00008EBC106B068B84220D1002409E000BF7E
:1019E00006EB8400026912B1F98DF0689047641C1F
:1019F000E4B2307FA042F3D80B48F18B08386A4636
:101A0000006803F0EFFA48B1009838B107494FF089
:101A100080500860BFF34F8FBFF36F8F6D1CEDB226
:101A2000032DD3D3BDE8F8831400002004ED00E0BB
:101A30002DE9F047044690F8390099460D460128F3
:101A400001D0222858D12DB322B394F838000128B0
:101A500052D0012684F838600027E76394F83900F3
:101A600022281AD05FF0120084F83900A284E284A0
:101A70004FF48058E08C4B46401EE084A0684FF045
:101A8000000240454FF08001204613D100F095FC44
:101A900008BB04E00120BDE8F0873220E4E7288895
:101AA0002168C0F308004860206908B16D1C08E097
:101AB000AD1C06E000F081FC68B9216815F8010B47
:101AC0004860E08C0028D5D14B46002240212046BA
:101AD00000F073FC08B10320DDE794F839003228E8
:101AE00006D084F8396000BF84F838700020D2E74F
:101AF000222084F83900F7E70220CCE770B50446CD
:101B000090F83900012801D0222836D181B37AB368
:101B100094F83800012830D0012084F83800216280
:101B2000A284E2840025E56394F83900222822D0BB
:101B30005FF0120084F83900236B11489862236B20
:101B40001048D862236B1048186326681346321D6C
:101B5000206BFEF7B5FC21686FF04000086020683C
:101B6000416941F08001416184F83850002070BD26
:101B7000FFE70120FBE73220DCE70220F7E7000067
:101B8000D51F000803200008651F00082DE9F84351
:101B900005460020124EDFF84C900446A6F10807D7
:101BA0004FF08058CDF8000004EB840006EBC00035
:101BB0008168A9420DD1818C6A46786803F012FAD7
:101BC00038B1009828B1C9F80080BFF34F8FBFF338
:101BD0006F8F641CE4B2032CE6D3BDE8F8830000E9
:101BE0001400002004ED00E07047FEE7274808B528
:101BF000016841F0807101600068254900F0807043
:101C00000090244801604FF4804141604021816090
:101C10008021C1600021016141618161C161FEF7E4
:101C20001DFC00B1FEE7002205210C20FEF7F6FDA9
:101C30000C20FEF7E7FD002205210D20FEF7EEFD4A
:101C40000D20FEF7DFFD002205210E20FEF7E6FD48
:101C50000E20FEF7D7FD002205210F20FEF7DEFD46
:101C60000F20FEF7CFFD002205211020FEF7D6FD44
:101C70001020FEF7C7FD002205211120FEF7CEFD42
:101C8000BDE808401120FEF7BDBD00001C38024031
:101C900008600240B00500202DE9F041274886B0D9
:101CA000016841F004010160016801F0040105913F
:101CB000016841F020010160016801F020010591F7
:101CC000016841F001010160016801F00101059125
:101CD000016841F0020101600068194F00F0020044
:101CE0004FF2E0050590002229463846FEF7EBFC4E
:101CF000DFF85080BE15002231464046FEF7E3FC77
:101D000000240320CDE90004694638460294FEF71A
:101D10000FFC00950125CDE901546946384603942E
:101D2000FEF706FC0096CDE901546946404603944F
:101D3000FEF7FEFB06B0BDE8F08100001C38024053
:101D40000004024000000240FEE770470907090E48
:101D5000002806DA00F00F0000F1E02080F8141DE2
:101D6000704700F1E02080F80014704738B51C4936
:101D7000002309681B4A11F0F00F23D118491C31C8
:101D80000C68E500184C03D5216801F4C0540EE03E
:101D90000D6845F080550D600D6805F08055009583
:101DA00024680D6804F4C05425F080550D60B4F526
:101DB000C05F07D1B0F5404F04D11068012340F057
:101DC00004001060106820F00100184310601068D3
:101DD00000F00100984201D0012038BD002038BD3C
:101DE00008380240003C0240007000400B4C4FF4A9
:101DF0007A75284601F014FB012202212046FEF7E5
:101E000062FC284601F00CFB002202212046FEF76E
:101E10005AFC284601F004FBEBE7000000040240F6
:101E200001F00ABB1C4800B5016893B021F4C05111
:101E300041F40061016001200090019002200990AE
:101E4000C0030A9080000B9000010C906846FEF7DA
:101E500095FE00B1FEE70F200D9003200E900020AC
:101E60000F901090119001210DA8FEF709FD00B10F
:101E7000FEE7FEF70FFE4FF47A71B0FBF1F0FFF7CB
:101E800031FA0420FFF722FA00220F21501EFEF73C
:101E9000C5FC13B000BD0000007000400F48016891
:101EA00041F4807101600D4908310A680C4B1A40F9
:101EB0000A6002680B4B1A400260026822F480221A
:101EC0000260086820F47D0008600020091D086099
:101ED00005494FF00060086070470000003802407C
:101EE0000CC0FF88FEFFFEEE08ED00E00148FFF7A2
:101EF00036BA00008C07002070B502684FF08046AB
:101F0000134B144CB04203D0984201D0A04205D1EB
:101F100022F070054A682A43B0420CD098420AD099
:101F2000A04208D00C4B984205D00C4B984202D0EE
:101F30000B4B984203D122F44073CA681A430260E3
:101F40008A68C262096881620121416170BD000036
:101F5000000400400008004000080140000C01405F
:101F60000010014010B5406A0021C185C1840121E3
:101F700080F83910C16B41F01001C1630168CA6873
:101F800012F0100F03D0CA6822F01002CA60FFF7E7
:101F900097FA10BD10B50146406A096809688906BC
:101FA0000ED40021C18501684A6922F040024A61CD
:101FB00090F83910322906D05FF0010180F839100D
:101FC000FFF7FAFC10BD1221F8E710B5406AFFF7E1
:101FD000F4FC10BD10B50146406A0968096889061D
:101FE0000CD40021C18401684A6922F080024A6150
:101FF0000068C16841F04001C16010BDFFF7C6FD37
:1020000010BD10B5406AFFF7EFFD10BD10B590F898
:102010003910222903D0322901D0022010BD816855
:10202000B1F5805F11D00169002901681FD04968AE
:1020300001F07F03816A4A1C82620B70C18D491EC8
:102040000904090CC18518D030E00269816A002AB0
:102050000268526805D0D2B20A80816A491C816246
:10206000ECE7C2F308020A80816A891CF7E74A6834
:10207000816A4B1C83620A70E0E70168CA6822F03B
:102080002002CA6090F83910322911D00168CA685C
:1020900022F48072CA6001684A6922F001024A6132
:1020A0005FF0010180F83910FFF786FC002010BDB9
:1020B0001221F7E72DE9F041044600680169E26862
:1020C00021F44051114301612169A068E26908438C
:1020D0006169114308432168CA6849F20C639A4355
:1020E0000243CA6020684169A26921F4407111432A
:1020F0004161E1696425B1F5004F954821684FF0D1
:1021000032083DD081427AD1FEF7E2FC00EBC001FB
:1021100001EB001061688900B0FBF1F6FEF7D8FC16
:1021200000EBC00101EB001061688900B0FBF1F029
:10213000B0FBF5F06FF01801484306EB800108EBA7
:102140000110B0FBF5F000F0F006FEF7C1FC00EB6B
:10215000C00101EB001061688900B0FBF1F0B0FB39
:10216000F5F006EB0016FEF7B3FC00EBC00101EB47
:10217000001061688900B0FBF1F7FEF7A9FCD0E020
:1021800081423DD1FEF7A4FC00EBC00101EB001041
:1021900061684900B0FBF1F0B0FBF5F00601FEF715
:1021A00097FC00EBC00101EB001061684900B0FB37
:1021B000F1F7FEF78DFC00EBC00101EB0010616848
:1021C0004900B0FBF1F0B0FBF5F06FF018014843A7
:1021D00007EB800108EBC100B0FBF5F000F0F80060
:1021E00006EB4006FEF774FC00EBC00101EB0010AB
:1021F00061684900B0FBF1F7FEF76AFC3CE055E08E
:10220000FEF74EFC00EBC00101EB001061684900D5
:10221000B0FBF1F0B0FBF5F00601FEF741FC00EB7E
:10222000C00101EB001061684900B0FBF1F7FEF757
:1022300037FC00EBC00101EB001061684900B0FB06
:10224000F1F0B0FBF5F06FF01801484307EB8001A7
:1022500008EBC100B0FBF5F000F0F80006EB40061B
:10226000FEF71EFC00EBC00101EB001061684900A5
:10227000B0FBF1F7FEF714FC00EBC00101EB00101E
:1022800061684900B0FBF1F0B0FBF5F06FF01801A8
:10229000484307EB800108EBC100B0FBF5F000F00C
:1022A0000700216830448860BDE8F081FEF7F8FB44
:1022B00000EBC00101EB001061688900B0FBF1F692
:1022C000FEF7EEFB00EBC00101EB00106168890036
:1022D000B0FBF1F0B0FBF5F06FF01801484306EBEE
:1022E000800108EB0110B0FBF5F000F0F006FEF7FE
:1022F000D7FB00EBC00101EB001061688900B0FB67
:10230000F1F0B0FBF5F006EB0016FEF7C9FB00EBB1
:10231000C00101EB001061688900B0FBF1F7FEF726
:10232000BFFB00EBC00101EB001061688900B0FB4E
:10233000F1F0B0FBF5F06FF01801484307EB8001B6
:1023400008EB0110B0FBF5F000F00F00A9E700006A
:102350000038014090F83910122903D0322901D0F9
:10236000022070478168B1F5805F016A0BD04A1C7A
:102370000262026809785160C18C491E0904090C87
:10238000C1840ED017E009880268C1F308015160CA
:1023900001690029016A02D0491C0162ECE7891C2D
:1023A000FBE70168CA6822F08002CA600068C16861
:1023B00041F04001C160002070472DE9F0471D4603
:1023C00090460E460446FEF783F907465FEA08008A
:1023D0004FF000094FF0010808D030E0681C05D02C
:1023E00095B1FEF775F9C01BA8420DD820680068AA
:1023F00036EA0000F2D127E0681C20D025B1FEF7B4
:1024000067F9C01BA8421AD92068C16821F0800171
:10241000C1602068C16821F02001C1602068C168E6
:1024200021F48071C1602068416921F0010141619E
:1024300084F8398084F838900320BDE8F08720685C
:10244000006836EA0000D7D00020F6E70148FFF721
:1024500087B80000F00400200148FFF781B80000B1
:10246000300500200148FFF77BB800007005002010
:10247000FEE738B590F839100446006822290DD0DF
:1024800032290BD00168C943C90637D401684168B5
:102490000091C16821F01001C16020E00168C943CA
:1024A000C90628D4016841680091C16821F0100173
:1024B000C1602046FEF7F0FF606B00680068800690
:1024C0000DD40020E0852068416921F04001416180
:1024D00094F8390032280FD0012084F83900606B5D
:1024E00000684168A08D884200D0401AE0852046EF
:1024F000FFF764FA002038BD1220EEE7022038BD55
:10250000FEE700000FB4054B10B503A9044A02987A
:1025100000F02CF810BC5DF814FB0000312F00080F
:10252000240100200FB4084B10B504A902AA039897
:1025300000F01CF8044602A9002000F077F92046BC
:1025400010BC5DF814FB00002D28000802E008C84C
:10255000121F08C1002AFAD170477047002001E01D
:1025600001C1121F002AFBD1704700002DE9FF4F67
:102570008DB09B460F460446002606E025280BD06A
:102580005A460F999047641C761C20780028F5D194
:1025900011B03046BDE8F08F0025A84601229849C9
:1025A00000E0054314F8013F203B02FA03F0084223
:1025B000F7D120782E2817D114F8010F45F0040523
:1025C0002A280ED06FF02F022078A0F130010929BF
:1025D0000AD808EB880102EB410100EB0108641CFA
:1025E000F2E757F8048B641C20786C280DD004DCCB
:1025F0004C2812D06A2811D104E074280DD07A2812
:102600000CD10AE045F4001507E0617845F4801527
:10261000814202D1641C05F58015641C2278692A68
:1026200045D008DC002AB3D0582A69D0632A10D0DC
:10263000642A08D13BE0702A67D0732A13D0752A28
:102640005CD0782A5CD010465A460F999047761C89
:10265000D3E017F8040B8DF8000000208DF801007E
:10266000E946012003E057F8049B4FF0FF3069076B
:102670004FF0000501D40AE06D1C45450DDA854296
:10268000FADB19F805100029F6D106E06D1C854229
:10269000FCDB19F805100029F8D12E4404E019F8E4
:1026A000010B5A460F9990476D1EF8D2A5E00A20FB
:1026B0000021CDE90801C5F3025002280DD001CF59
:1026C000C117031E71F100030DDA4FF0000CD0EBBF
:1026D0000C006CEB01012D2308E0FF1D27F007071C
:1026E000F7E80201EDE72B0504D52B238DF8283000
:1026F00001233BE0EB0739D02023F7E70A2000E075
:1027000010200021CDE9080107E01020002145F04C
:102710000405CDE908014FF00808C5F3025002286E
:102720000FD001CF00214FF0000A2B071FD5702AD0
:102730000DD0DDE908C38CF0100C5CEA030C0CD062
:1027400015E0FF1D27F00707F7E80201EBE740223D
:102750008DF828204FF0010A0BE050EA010306D063
:1027600030238DF828308DF8292002239A46582AE4
:1027700004D024A20DF120090B9209E026A2F9E76A
:10278000DDE90823FDF761FD0B9B9B5C09F8013D2A
:1027900050EA0102F4D1ADEB09002030089068073F
:1027A00001D44FF001080899884502DDA8EB01002B
:1027B00000E000208046002506E00AA85A46405D59
:1027C0000F9990476D1C761C5545F6DB04E03020D0
:1027D0005A460F999047761CB8F10001A8F10108FC
:1027E000F5DC05E019F8010B5A460F999047761C65
:1027F0000899481E08900029F4DC641CC5E6000016
:1028000009280100303132333435363738396162C6
:10281000636465660000000030313233343536378A
:102820003839414243444546000000000A68531CC1
:102830000B6010707047704710B501F099FBBDE850
:10284000104000F0A3B800006FF00F0350B106492C
:102850004A78012A06D0521CD2B24A7041F82200AE
:1028600000207047184670478C000020034603483C
:102870000A461946007801F003BE00008C000020D3
:1028800010B500F00FFC104A062110A001F09CFDCD
:102890000D4C02000FD00DA10EA000BFFFF732FEBD
:1028A0002078184901F02EFC010008D0BDE8104046
:1028B00015A0FFF727BE227804A11AA0EEE7BDE815
:1028C00010401FA0FFF71EBE8C00002075617274BF
:1028D00033000000626C652020676574202573203A
:1028E00068616E646C65206661696C2025642C6586
:1028F00078697420636F6E736F6C655F7461736B5E
:10290000200A00005D290008626C65207561727400
:10291000207265676973746572206661696C202531
:10292000640A0000626C6520676574202573206866
:10293000616E646C652069732025640A00000000E4
:10294000626C652075617274207265676973746565
:10295000722073756363657373200A002DE9F0417B
:102960000E4607460024084D08E000BF05EB840032
:102970003146426838469047641CE4B26878A04209
:10298000F4D8BDE8F08100008C00002010B5FFF7FE
:1029900077FFFFF750FF00F0FFFCBDE8104000F0AC
:1029A0001BBB000038B500208DF8000004460EA0C7
:1029B000FFF7A8FD684600F0C7FA9DF8000003285D
:1029C0000FD0012001F0B0FA03219DF8000001F0C2
:1029D00017FA0446022001F0A7FA214605A0FFF7E6
:1029E00091FD204638BD0000636C6F7365206C6FED
:1029F000636B0A006F70656E206C6F636B2072658D
:102A00007475726E2025640A000000002DE9F047FD
:102A1000314E81469846307817460D46012808D039
:102A20002E4C94F8BC010A2806D96FF00900BDE8C5
:102A3000F0876FF00E00FAE74846FDF7E7FBA84283
:102A400046D1052D44D84046FDF7E0FB1D283FD870
:102A5000EFB30120307094F8BC01401C84F8BC0135
:102A60004846FDF7D3FB024694F8BC0100EB400159
:102A700001EBC00004EB800049462838FDF7A2FBBB
:102A80004046FDF7C3FB024694F8BC0100EB400151
:102A900001EBC00004EB800041461C38FDF792FBBF
:102AA00094F8BC0100EB400101EBC00004EB800096
:102AB00000F8225C94F8BC0100EB400101EBC0007F
:102AC00004EB800040F8207C00203070AFE7FFE787
:102AD0006FF00C00ABE7000004000020280100208C
:102AE00038B500220092642900D36421CAB20E4C8A
:102AF000014604F2BD1084F82122FDF763FB6A460B
:102B00000121D4F8240202F06DFA00280AD00098BE
:102B1000002807D005494FF080500860BFF34F8F61
:102B2000BFF36F8F38BD00002801002004ED00E0E6
:102B300010B586B0142218496846FDF743FB002102
:102B4000684600F083FC154C002820601DD014A0BE
:102B5000FFF7D8FC02F0F2F9C4F82402002816D0DE
:102B600019A0FFF7CFFC0121D4F8240202F0C6F926
:102B700021A3264A042126A0FFF748FF010002D026
:102B800025A0FFF7BFFC06B010BD2BA0E0E733A0E7
:102B9000FFF7B8FCECE70000F85A00082801002015
:102BA000636F6E736F6C655F7461736B5F66756E78
:102BB0006374696F6E2063726561746520737563F9
:102BC000636573730A000000636F6E736F6C652E2C
:102BD000636F6E736F6C655F6576656E745F686159
:102BE0006E646C65206372656174652073756363E0
:102BF0006573730A000000006C69737420616C6C6B
:102C000020636F6D6D6F6E64210000006D2F0008F2
:102C100068656C7000000000636F6E736F6C655FB9
:102C200068656C705F726567697374657220666150
:102C3000696C2025640A0000636F6E736F6C655FBA
:102C40007461736B5F66756E6374696F6E20637217
:102C500065617465206661696C0A0000636F6E735C
:102C60006F6C652E636F6E736F6C655F6576656EF6
:102C7000745F68616E646C652067726F7570206345
:102C80007265617465206661696C0A001CB500207C
:102C90008DF8040001AA062122A001F095FB234C27
:102CA000020014D01FA122A0FFF72CFC206801F025
:102CB0000BFE002001F008FE2A499DF8040001F0F7
:102CC00021FA01000AD028A0FFF71CFC09E09DF8BA
:102CD000042014A12CA0FFF715FCEDE732A0FFF7AC
:102CE00011FC394DD4F82402B8B101220023114659
:102CF000009502F07FF9C0070BD0344894F82112F8
:102D0000064600F0BBFB94F821123046FDF773FA3B
:102D1000E8E72FA0FFF7F6FBE4E7206802F052F89F
:102D2000E0E70000756172743200000028010020A5
:102D3000636F6E736F6C6520676574202573206800
:102D4000616E646C65206661696C2025642C657811
:102D5000697420636F6E736F6C655F7461736B2051
:102D60000A000000E12A0008636F6E736F6C652033
:102D7000636F72652072656769737465722066613E
:102D8000696C2025640A0000636F6E736F6C6520A8
:102D90006765742025732068616E646C65206973B3
:102DA0002025640A00000000636F6E736F6C65205D
:102DB000636F7265207265676973746572207375DD
:102DC0006363657373200A0036894100E5020020C1
:102DD000636F6E736F6C65207265636569766520DD
:102DE000756E6163636570746564206576656E7485
:102DF0000A00000000B585B014220F496846FDF7AF
:102E0000E1F90021684600F021FB0C490028086028
:102E10000FD00BA0FFF776FB12A3194A032119A0CC
:102E2000FFF7F4FD002802D017A0FFF76BFB05B0F9
:102E300000BD1CA0EEE700000C5B000808000020AD
:102E40007461736B5F73746174655F66756E6374D0
:102E5000696F6E2063726561746520737563636565
:102E600073730A006370752075736167652C7374E2
:102E700061636B2C206C65667420737461636B00F6
:102E8000E53F00084350550063707520636F6D6D1A
:102E90006F6E64207265676973746572206661691C
:102EA0006C0A00007461736B5F73746174655F66B4
:102EB000756E6374696F6E206372656174652066F8
:102EC00061696C0A0000000070B5040005D0164E60
:102ED0003068844209D1002070BD502080F31188F1
:102EE000BFF34F8FBFF36F8FFEE701F0F5FB65690E
:102EF00001F012FCF06B854202D0306C854201D1AA
:102F0000022070BD0948854204D1A06A0028F7D18B
:102F1000032070BD05481438854202D00DB1012050
:102F200070BD042070BD0000D400002018250020D2
:102F300013B5FF23012269460248FEF779FD009888
:102F40001CBD00003005002070B5074E044602216C
:102F50003046FDF7B3FB054601213046FDF7AEFBD9
:102F600005EB4000207070BD0004024070B50DA05C
:102F7000FFF7C8FA0024124D0EE000BF04EB440036
:102F800000EBC40005EB800101F110020DA0091D4A
:102F9000FFF7B8FA641CE4B295F8BC01A042EDD882
:102FA00070BD0000636F6D6D6F6E643A202020204D
:102FB00020696E737472756374696F6E733A0A0078
:102FC00028010020257320202020202020202020E0
:102FD00025730A0070470000012220210148FDF7F7
:102FE00072BB00000004024086B0FDF77FFBFEF7D5
:102FF00019FFFEF751FEFEF7F9FD224820494FF474
:10300000E13600240160C0E901640C25C460C0E918
:1030100004458461C461FEF71CFB00B1FEE719485A
:10302000194940300160C0E90164C460C0E9044549
:103030008461C461FEF70DFB00B1FEE7114813493E
:10304000803001604FF41651C0E90114C460C0E93A
:1030500004458461C461FEF7FCFA00B1FEE7142266
:103060000B496846FDF7AEF80021684600F0EEF91E
:1030700008490860FFF7E0FB00F0D9F9FEE700001F
:1030800000380140F00400200044004000480040A7
:103090005C5B0008A400002001460020842900D0C9
:1030A000C81C704710B50A4C00224FF480512046CE
:1030B000FDF709FB00224FF400512046FDF703FB0A
:1030C00020460122BDE810409103FDF7FCBA000044
:1030D00000040240F8B50E4607460024174D06E0EE
:1030E0002819017916A0FFF70DFA641CE4B295F8CF
:1030F0006800A042F4D813A0FFF704FA0020009063
:10310000012F03D1307890B1012813D0F02031780D
:103110008DF800108DF8010002216846FFF7A6FB2C
:1031200010F0FF0F02D008A0FFF7ECF9F8BD00F097
:1031300045F9ECE7FFF736FCE9E700007C040020E6
:10314000257800000A0000006D6F746F725F6C6F6D
:10315000636B2073656E64206461746120666169CD
:103160006C0A000010B586B0142211496846FDF7BC
:1031700029F80021684600F069F90E4C002820600B
:103180000FD00DA0FFF7BEF901F0D8FEE06650B1F8
:1031900014A0FFF7B7F90121E06E01F0AFFE06B011
:1031A00010BD20A0EEE729A0FFF7ACF9F7E700007B
:1031B000485B00087C0400206D6F746F725F6C6F59
:1031C000636B5F7461736B5F66756E6374696F6E5A
:1031D0002063726561746520737563636573730A38
:1031E000000000006D6F746F725F6C6F636B5F74D3
:1031F00061736B2E6D6F746F725F6C6F636B5F7456
:1032000061736B5F6576656E745F68616E646C6533
:103210002063726561746520737563636573730AF7
:10322000000000006D6F746F725F6C6F636B5F7492
:1032300061736B5F66756E6374696F6E2063726530
:10324000617465206661696C0A0000006D6F746FBF
:10325000725F6C6F636B5F7461736B2E6D6F746FF5
:10326000725F6C6F636B5F7461736B5F6576656EC5
:10327000745F68616E646C652067726F757020633F
:103280007265617465206661696C0A0038B5002258
:103290000092642900D36421CAB20D4C0146201D5E
:1032A00084F86820FCF78EFF6A460121E06E01F089
:1032B00099FE00280AD00098002807D005494FF051
:1032C00080500860BFF34F8FBFF36F8F38BD000091
:1032D0007C04002004ED00E008B51648FFF7B4FABE
:1032E000010002D014A0FFF70DF9214800F078FD8D
:1032F000010002D01F48FFF705F91F48FFF724FE21
:103300001D4C1EA0703C94F87010FFF7FBF8214D87
:10331000E06E0028FCD0012200231146009501F048
:1033200069FEC007F4D094F86800211DFFF7D2FEB3
:10333000EEE700008D3200086D6F746F725F6C6F86
:10334000636B207461736B20726567697374657257
:10335000206D6F746F725F6C6F636B20646174615A
:103360002072656164206661696C2025640A000032
:10337000D52F0008A85B0008EC040020637572726A
:10338000656E74207374617475732069732025648D
:103390000A00000036894100AFF3008010B5064CEA
:1033A000012240212046FDF78EF920460122BDE88A
:1033B00010408021FDF787B90004024038B5002095
:1033C0008DF8000004460DA0FFF79CF86846FFF753
:1033D000BBFD9DF8000078B1012000F0A5FD0021A3
:1033E0009DF8000000F00CFD0446022000F09CFD5A
:1033F000214605A0FFF786F8204638BD6F70656E40
:10340000206C6F636B0A00006F70656E206C6F63D9
:103410006B2072657475726E2025640A00000000CE
:1034200010B500B9012001F029FA002010BD10B537
:1034300001F08CFC002010BD10B502F043F901280A
:1034400003D0BDE8104001F093BE10BD3EB5044668
:103450000D46B0F90800FFF71FFE02A9CDE90001F3
:10346000208A2B4682B2D4E9001002F0FFF801282E
:1034700001D000203EBD02983EBD00002DE9F04184
:10348000002680463446114D12E000BF04EB440094
:1034900000EBC40005EB80000746827A001D414620
:1034A000FCF7C4FE10B9F86801268047641CE4B23A
:1034B00095F8BC01A042E9D8012E04D0BDE8F04146
:1034C00003A0FFF71FB8BDE8F0810000280100202D
:1034D000636F6D6D6F6E642063616E206E6F74201C
:1034E000666F756E640A00002DE9F041184C0F46B6
:1034F0000546E6682068001D01F044F838B92068E8
:1035000090F82C1001208840216981432161681CBA
:1035100007D137B12168BDE8F0410E48091D01F01F
:10352000CFB820683544B5424560216805D2206C8B
:10353000BDE8F041091D01F0ABB8E06B091D01F0D9
:10354000A7F8A06A854200D2A562BDE8F08100001C
:10355000D4000020182500202DE9F041054601F097
:10356000BBF82E4CA068401CA06020682C4F10B106
:10357000606940B32DE02560A068012829D10026AC
:1035800006EB860007EB800001F074F8761C072E2E
:10359000F6D323488C3001F06DF82148A03001F0BB
:1035A00069F81F48B43001F065F81D48C83001F0D3
:1035B00061F81B48DC3001F05DF819488C30E0639D
:1035C0001430206405E02068E96AC06A884200D8A7
:1035D0002560606A401C60626864E96A01202269B3
:1035E00088401043206101EB810007EB8000291D1A
:1035F00001F066F801F090F8606900280CD02068AE
:10360000E96AC06A884207D206494FF080500860D4
:10361000BFF34F8FBFF36F8FBDE8F081D400002060
:103620003C24002004ED00E010B501F055F80E4CEC
:103630002068A0B90D4801F01DF80C48143001F0C5
:1036400019F80A48E06014302061002210210A2095
:1036500001F0A4FD206010B105A101F0D9F8BDE88A
:10366000104001F059B80000A8000020C407002055
:10367000546D72510000000070B5114E114C17E0EE
:1036800001F0F8FB3068B8B102F056F901F024F807
:10369000F068C568281D00F075FFA068401EA06096
:1036A0006068401E606001F037F8284600F055F869
:1036B00060680028E4D170BD02F03EF9F8E7000030
:1036C00004250020D400002030B4026C0B46002AF0
:1036D0000BD0C1681144C1604468A14201D30168A4
:1036E000C16030BC1846FCF76DBD30BC70472DE999
:1036F000F041856B174604460026026C82B1C7B1C3
:10370000E068FCF75FFDE168206C091AE16022685F
:10371000914202D26168081AE060022F16D017E0C9
:103720002068A8B9606802F045F80646002060608D
:103730000EE0A068FCF746FD216CA0680844A0607C
:103740006168884204D32068A06001E005B16D1E65
:103750006D1CA5633046BDE8F08110B50446006BD2
:1037600000F0EEFF2046BDE8104000F0E9BF000089
:1037700010484FF4E051420706D0C01D0D4920F01B
:103780000700411AC1F5E0510B4A00230144C2E988
:1037900000030839103A21F0070111604B600B60FB
:1037A0000B1AC0E9001393604FF000405360D060E3
:1037B000704700003C080020CC000020074C4FF070
:1037C0008056074DFFF758FF20680128FAD92E6070
:1037D000BFF34F8FBFF36F8FF4E700003C2400204E
:1037E00004ED00E02DE9F0470E46DDE909841746B7
:1037F000824691009946089DA522206BFCF7F4FCB7
:103800006FF00301206B01EB8701084420F00707EC
:10381000780707D0502080F31188BFF34F8FBFF394
:103820006F8FFEE72218315C82F83410315C11B1E1
:10383000401C1028F6D3002684F84360072D00D3DF
:103840000625E562C4E91356201D00F01EFF04F1B1
:10385000180000F01AFF2461C5F107006462A0613E
:103860006665A66584F85C604A465146384600F0B5
:10387000A5FA2060B8F1000F01D0C8F80040BDE8FB
:10388000F087000030B5114900E011460A68824215
:10389000FBD34B685C18844203D1406818444860ED
:1038A000084643681C18944209D1084C103C24680F
:1038B000A24209D052681A4442600A681268026043
:1038C000814200D0086030BD0460F9E7CC000020E0
:1038D00070B5002441600B4D0061914206D8D11AA9
:1038E0008269914206D2011D286907E09A4203D2FB
:1038F000994201D3012403E0011DE86800F0C8FEED
:10390000204670BDA800002010B5044600F0E4FE7B
:10391000A06B28B15FF0000400F0FEFE204610BD51
:103920000124F9E72DE9F0478146086892460C46E4
:10393000002600B3606804F1080540686060A84292
:1039400001D1416861606068D0F80C8060684068AF
:103950006060A84201D141686160606806EBC60101
:1039600009EB8101C76853460122384601F002F88D
:10397000761C4745EAD13046BDE8F08730B589B0BE
:103980002F4D52E00498002806DADDE90601059A79
:1039900090470498002848DB069C606910B1201D00
:1039A00000F0F0FD02A800F0B7F8024604980A28DB
:1039B0003BD2DFE800F00505053A263705053A2633
:1039C0000598A169034601442046FFF781FF00B333
:1039D000616A20468847E069012826D100200090CE
:1039E0000598A169002342181946204602F02AF8DA
:1039F00078B9502080F31188BFF34F8FBFF36F8FDA
:103A0000FEE70598A06128B1811813462046FFF70C
:103A10005FFF0AE0502080F31188BFF34F8FBFF3A0
:103A20006F8FFEE7204600F08BFE00231A4604A9A4
:103A3000286801F0DDFB0028A4D109B030BD0000EA
:103A4000A80000202DE9FC410F46054601F012FABE
:103A500001A800F061F80446019818B101F06CFF6C
:103A6000BDE8FC81224EAFB130690068A8B30027E1
:103A7000291B3A46306800F0DFFE01F05DFF0028A8
:103A8000EED11C494FF080500860BFF34F8FBFF359
:103A90006F8FE5E7A542EBD801F04EFFF0682746AF
:103AA000C068C468201D00F06DFDE069012810D1D8
:103AB000A0692B4641193A462046FFF709FF40B15D
:103AC00000200346014600902A46204601F0BAFF36
:103AD00020B1616A20468847C2E707E0502080F3A2
:103AE0001188BFF34F8FBFF36F8FFEE70127BFE74A
:103AF000A800002004ED00E00648C16B096829B168
:103B0000C16BC968C9684968816270474FF0FF316D
:103B1000FAE70000D400002070B5054601F0E0FD92
:103B2000064E0446B068844203D200F009F8012032
:103B300000E0002028602046B46070BDA80000208E
:103B4000F8B5194D1FE0C068C4680668201D00F074
:103B500019FD616A20468847E069012813D1A069F0
:103B60003044B04206D924616060211DE86800F04D
:103B70008FFD08E0002003460146009032462046B3
:103B800001F060FF38B1E86801680029DBD12969DC
:103B9000C5E90310F8BD502080F31188BFF34F8FA3
:103BA000BFF36F8FFEE70000A800002008484068C0
:103BB000401C4FF0500080F3118804D0BFF34F8FAA
:103BC000BFF36F8FFEE7BFF34F8FBFF36F8FFEE73B
:103BD00018010020002150B10A4B42699A420FD1CE
:103BE000806AA3F1280290420AD040B108E0502038
:103BF00080F31188BFF34F8FBFF36F8FFEE7012172
:103C000008467047182500200346002012B199434A
:103C100002D070470B42FCD001207047074CE0688F
:103C2000016841B1C0680021D0F80000FFF70AFF29
:103C3000FFF7A4FEF3E701210020F7E7A80000202A
:103C40002DE9F041044600F047FD94F9455004F198
:103C5000240609E0606A48B1304601F0F7FD08B17A
:103C600000F080FF6D1E6DB2002DF3DC4FF0FF36CB
:103C700084F8456000F050FD00F02EFD94F94450AA
:103C800004F1100709E0206948B1384601F0DEFD73
:103C900008B100F067FF6D1E6DB2002DF3DC84F8F3
:103CA0004460BDE8F04100F037BD10B50446FCF7B4
:103CB000B4FA2046FCF7AAFA202101E02154401C66
:103CC0000F28FBD300212154204410BD2DE9F041E1
:103CD0000546002701F0CEF8314E306808B9FFF7ED
:103CE00047FDF06805424BD1C5B3083568070ED0D3
:103CF00005F00700C0F108000544680707D0502010
:103D000080F31188BFF34F8FBFF36F8FFEE72DB3A2
:103D10007068854234D82248103001460C6801E0B2
:103D200020460C466168A94202D221680029F7D1D9
:103D300031688C4224D007682168016060680837C8
:103D4000411B10290FD96019420708D0502080F379
:103D50001188BFF34F8FBFF36F8FFEE710E0416014
:103D60006560FFF78FFD61687068401A7060B26827
:103D7000904200D2B060F06801430020C4E9000125
:103D800001F0DAFD780707D0502080F31188BFF3E7
:103D90004F8FBFF36F8FFEE73846BDE8F08100001C
:103DA000BC0000200449086818B10868026D521C64
:103DB0000265086870470000D400002010B5031F9A
:103DC0004FF080741C601B1F21F001011960191F46
:103DD000024B0B60143940380A6010BDAD3B00083F
:103DE000064A1178022906D2131D43F82100491C06
:103DF0001170002070476FF0090070479400002098
:103E00002DE9F34100243C4F254644F6206671B36A
:103E1000012906D0022904D0032905D037A0FEF7D6
:103E200071FB2846BDE8FC81002240213846FCF7A2
:103E30004AFC012280213846FCF745FC052000F0B1
:103E40001DFD6846FFF780F8641DA4B2214632A02C
:103E5000FEF758FB9DF80000032802D0B442EDD9CC
:103E600001E0002500E0F225FFF798FAD9E7FFE727
:103E70009DF80000032820D001281ED00228D0D1B0
:103E8000002240213846FCF71EFC012280213846E2
:103E9000FCF719FC052000F0F1FC6846FFF754F828
:103EA000641DA4B221461CA0FEF72CFB9DF8000067
:103EB0000028D6D0B442EDD9D5E7012240213846BA
:103EC000FCF701FC002280213846FCF7FCFB42F2A3
:103ED0001075052000F0D2FC6846FFF735F8641D28
:103EE000A4B221460CA0FEF70DFB9DF800000028AF
:103EF000B7D0AC42EDD9B6E7000402407365742038
:103F0000737461747573206973206E6F7420737598
:103F100070706F72740A000074696D65206F75743B
:103F20002025640A00000000074B4FF4807101282F
:103F300004D0022804D005A0FEF7E4BA012200E074
:103F400000221846FCF7BFBB0000024073657420D6
:103F5000737065616B206F75742070757420646F69
:103F6000206E6F7420737570706F72740A00000099
:103F700010B500F03FF9FEF73DFFFEF7D9FDFFF762
:103F8000F1F8BDE8104000F033B80000BCB0F021FB
:103F90006846FCF730F900244FF47A7517E0B4B1A5
:103FA0002046641CE4B2042817D2684600F07CFD69
:103FB00069460BA0FEF7A6FA684600F01BFD6946AD
:103FC00007A0FEF79FFA284600F058FCE7E700201C
:103FD00000F0F8FE641CE4B2E1E70024F7E700001B
:103FE00025730A000148006800F060BE0800002048
:103FF000AFF3008000B585B0142208496846FCF78D
:10400000E1F800216846FFF721FA28B104A000BFBB
:10401000FEF778FA05B000BD0AA0F9E7345B0008A6
:10402000746573745F75617274325F66756E637404
:10403000696F6E2063726561746520737563636573
:1040400073730A00746573745F75617274325F66AE
:10405000756E6374696F6E20637265617465206646
:1040600061696C0A0000000008B56A4606210DA0CF
:1040700000F0AAF902000DD00AA10CA0FEF742FA46
:10408000002000F021FC00BF4FF47A74204600F0BD
:10409000F5FBFBE79DF8002002A112A0FEF732FA23
:1040A000F2E7000075617274320000007465737489
:1040B0005F756172743220676574202573206861B2
:1040C0006E646C65206661696C2025642C65786976
:1040D0007420746573745F75617274315F74617399
:1040E0006B200A00746573745F75617274322067A7
:1040F00065742025732068616E646C652069732087
:1041000025640A0070B50E461A4A00216FF00F05AB
:1041100001EB810302EBC3039B79834225D101EBC1
:10412000810002EBC004207F421CD2B22277032818
:1041300018D211A0FEF7E6F9207F04EB8000C660DC
:10414000607F68B1002060770A48E18B083800681A
:1041500000F001FF014611A0FEF7D4F9002070BD68
:10416000284670BD6FF0090070BD491CC9B2032913
:10417000CED3F5E71400002069203D2025642C757E
:104180006172745F63616C6C5F6261636B5F636FCC
:10419000756E74203D2025640A0000007578426920
:1041A0007473203D2025780A000000000E4E08B5EB
:1041B0000C4C06F108050094002301220721306809
:1041C00000F018FFC107F6D1810703D56422074824
:1041D000696B04E04007EED564220548E96D00F004
:1041E0001BF9E8E7368941000C000020300500206B
:1041F00070050020F0B585B014222C496846FBF705
:10420000E1FF00216846FFF721F900282FD028A000
:10421000FEF778F900F092FE314D0028286028D092
:1042200030A0FEF76FF90721286800F067FE2C4FD9
:104230000026083706EB860007EBC0042046FBF794
:10424000E5FF024631A12046FBF7F0FF002818D019
:1042500003220021012000F0A1FF206268B10023A9
:104260001A46194601F0BEF8206A30B109E029A0CB
:10427000CEE733A0FEF746F9D9E7214639A0FEF78D
:1042800041F9761CF6B2032ED4D300F057FE6860D5
:1042900040B13AA0FEF736F93821686800F02EFEEA
:1042A00005B0F0BD3FA0FEF72DF9F9E7205B00084F
:1042B000756172745F636F72655F726561645F746C
:1042C00061736B5F66756E6374696F6E2063726590
:1042D00061746520737563636573730A0000000081
:1042E0000C0000207561727420636F726520726526
:1042F00061642067726F75702063726561746520F8
:10430000737563636573730A0000000075617274EE
:1043100032000000756172745F636F72655F726571
:1043200061645F7461736B5F66756E6374696F6EF1
:1043300020637265617465206661696C0A00000023
:104340007561727420636F726520726561642067A5
:10435000726F757020637265617465206661696C47
:104360000A0000002573207365616D20637265612A
:104370007465206661696C0A0000000075617274E2
:1043800020636F72652077726974652067726F753C
:104390007020637265617465207375636365737300
:1043A0000A0000007561727420636F726520777275
:1043B0006974652067726F757020637265617465DA
:1043C000206661696C0A00002DE9F04117460D4630
:1043D0008046062903D96FF00C00BDE8F0810D4E30
:1043E000002400BF04EB840006EBC0002A464146CF
:1043F000FBF71CFF30B1641CE4B2032CF2D36FF066
:104400000B00EAE704EB840006EBC000807938700B
:104410000020E2E7140000202DE9F04116460F4687
:1044200080460025324639464046FDF7B9FA040079
:104430000ED0022C04D0014607A0FEF763F807E077
:10444000012000F01BFA28466D1CEDB26428E9D962
:104450002046BDE8F081000048414C5F5541525470
:104460005F526563656976655F444D4120666169A9
:104470006C20206F7220627573792025640A000019
:104480002DE9F84F5FEA02094FF0000502468A461F
:104490002E4628461BD0BAF1000F18D0304900BF75
:1044A00000EB800301EBC304A379934212D1236A8A
:1044B00083B100EB800001EBC000D0F80880184603
:1044C00000235F1E3A46194600F092FE09E06FF0A5
:1044D0000C0542E0401CC0B20328E1D36FF0080590
:1044E0003BE04A4651464046FDF708FB10B1022822
:1044F0001FD032E01A4800970838A18C002301220F
:10450000406800F077FDA18C014226D0A068C16B05
:10451000C90606D5C16B21F01001C1636FF00F050C
:1045200000E0002500231A461946206A00F05AFFD1
:1045300013E0012000F0A2F93046761CF6B26428A0
:10454000CFD9214607A0FDF7DDFF00231A46194603
:10455000206A00F047FF6FF00D052846BDE8F88F90
:10456000140000207561727420636F7265202573DA
:104570002077726974652064617461206661696C7A
:104580000A000000D0E9013201699A60D0E90123F4
:104590005A604A68824201D182684A600022026100
:1045A0000868401E086070472DE9F04717460A4624
:1045B00005460024072600F05DFCDFF89080D8F85F
:1045C000080082423CD3DFF88890761E06EB860115
:1045D00004EBC40009EB810105EB80000122FFF729
:1045E000A1F90444002EF0D104EBC40005EB8000D7
:1045F00002224646D8F83C10FFF794F9044404EB35
:10460000C40005EB80000222316CFFF78BF90444F3
:104610000F4904EBC40005EB80000422C831FFF70A
:1046200081F904440A4904EBC40005EB800003222D
:10463000DC31FFF777F9044417B1064800683860A9
:1046400001F07AF92046BDE8F0870000D400002090
:104650003C240020A0000020044908680A68806902
:10466000D26A0968C2F107028A617047D40000204B
:1046700000F071BC00F108014FF0FF32C0E90112F7
:10468000C160016100210160704700210161704734
:1046900030B50B685A1C02D000F1080202E0026932
:1046A00004E02246546825689D42FAD953684B605D
:1046B00099608A60516008610168491C016030BDE1
:1046C00042684A6093688B609368596091600861A2
:1046D0000168491C01607047502080F31188BFF3C6
:1046E0004F8FBFF36F8F0A494868401C486001280C
:1046F0000CD10848006810F0FF0F07D0502080F35D
:104700001188BFF34F8FBFF36F8FFEE77047000034
:104710001801002004ED00E00849486828B1401E57
:10472000486001D180F311887047502080F31188D0
:10473000BFF34F8FBFF36F8FFEE70000180100201B
:1047400070B5002827D0144DA0F108046168E8680E
:10475000014207D1502080F31188BFF34F8FBFF380
:104760006F8FFEE722683AB1502080F31188BFF3C3
:104770004F8FBFF36F8FFEE78143616000F07AFBDC
:1047800060686968084468602046FFF77BF8BDE808
:10479000704001F0D1B870BDBC00002006484FF455
:1047A0007A710068B0FBF1F14FF0E020491E4161E1
:1047B00007210161704700000000002010B5FBF7E1
:1047C000EBFC114910280ED300F1E02090F8F00323
:1047D0000A78904207D2502080F31188BFF34F8FA0
:1047E000BFF36F8FFEE709480068896800F4E06056
:1047F000884207D9502080F31188BFF34F8FBFF351
:104800006F8FFEE710BD0000180100200CED00E0E6
:1048100010B5084B002200BF53F832401CB1521CA7
:104820000A2AF9D310BD43F8321003EBC2014860E5
:1048300010BD0000EC07002070B515460E4604467A
:10484000FFF74AFF94F944100020491C01D184F875
:10485000440094F94510491C01D184F84500FFF744
:104860005BFFA06B28B92A46314604F1240000F012
:1048700097F92046BDE87040FFF7E2B910B5020095
:1048800014D00F48006B38B1502080F31188BFF36B
:104890004F8FBFF36F8FFEE700F0ECFA0021104658
:1048A000FEF722FE01F048F8002807D105494FF035
:1048B00080500860BFF34F8FBFF36F8F10BD0000B3
:1048C000D400002004ED00E070B50546FFF704FFBA
:1048D000254C05B92568281DFFF754FE58B9E86A2C
:1048E000224A00EB800152F8211021B901218140B8
:1048F000206988432061A86A18B105F11800FFF704
:1049000041FE606A401C60622068854208D11748F9
:10491000291DC830FFF7D4FE6068401C606007E0C6
:10492000A068401EA0602846FEF717FFFFF7E4F8D6
:10493000FFF7F2FE6069002814D02068854211D18B
:10494000206B38B1502080F31188BFF34F8FBFF335
:104950006F8FFEE706494FF080500860BFF34F8F1E
:10496000BFF36F8F70BD0000D40000203C240020F6
:1049700004ED00E02DE9F0411E4690460C4607008C
:104980000ED0054605F13400C4E90050E86A206104
:10499000286BE061686CA060207B032803D00AE0EC
:1049A00013480568EEE700F065FAA86A08B102202E
:1049B000207300F0C1FFE86C6061686DA061052E96
:1049C00001D0267303E03846FEF77EFA2073B8F173
:1049D000000F0BD00021286B01E0401C491C02781D
:1049E000A52AFAD088082084BDE8F0810020FAE7E3
:1049F000D400002070B586B0002506460570234817
:104A000081680091806800EBC0008000FFF75EF9CC
:104A1000040038D003AA0099FFF7C6FD0090039860
:104A20006421B0FBF1F0039050B32846019524E0D7
:104A300000EBC00004EB8000039A8169B1FBF2F542
:104A400041683046FFF731F90646019800EBC00097
:104A500004EB800082692DB12B460DA13046FDF795
:104A600061FD03E00DA13046FDF75CFD3046FBF72C
:104A7000CDFB06440198401C019000998842D7D391
:104A80002046FFF75DFE06B070BD0000D400002098
:104A90000925750909257525250D0A0009257509BA
:104AA000093C3125250D0A0070B586B00024064664
:104AB0000470274881680291806800EBC000800084
:104AC000FFF704F9050041D000220299FFF76CFDC1
:104AD000CDE90204204628E000EBC00005EB800091
:104AE000017B01292AD002292AD003292AD00429AE
:104AF0002AD0002441683046FFF7D7F806460398CD
:104B000000EBC00005EB80008268018CCDE900124B
:104B1000036922460FA13046FDF704FD3046FBF73E
:104B200075FB06440398401C039002998842D3D336
:104B300006B02846BDE87040FFF702BE5224D9E710
:104B40004224D7E75324D5E74424D3E706B070BD09
:104B5000D4000020092563092575092575092575E7
:104B60000D0A000001490120C8617047D4000020EF
:104B700010B50C4650B1094909681831FFF788FD96
:104B80002046BDE810400121FEF7AEBC502080F366
:104B90001188BFF34F8FBFF36F8FFEE7D400002063
:104BA00070B514460D4668B10A4909681831FFF717
:104BB00087FD0CB14FF0FF3521462846BDE8704017
:104BC000FEF792BC502080F31188BFF34F8FBFF3E4
:104BD0006F8FFEE7D400002010B51446030011D0FB
:104BE0001048026BB2B1026841F000419161016866
:104BF00018461831FFF764FD2046BDE8104001213A
:104C0000FEF772BC502080F31188BFF34F8FBFF3C3
:104C10006F8FFEE7502080F31188BFF34F8FBFF3F3
:104C20006F8FFEE7D400002070B5040039D01D4D11
:104C3000E06A2968C96A884233D2A069002804DB87
:104C40002868C06AC0F10700A061E16A164E01EB56
:104C50008101606906EB810188421FD1201DFFF7A9
:104C600091FC012150B9E06A00EB800256F8222045
:104C700022B92A6901FA00F082432A612868C06AD1
:104C8000E0622A6981401143296100EB800006EB54
:104C90008000211DBDE87040FFF712BD2868C06A82
:104CA000E06270BDD40000203C24002070B50400F8
:104CB0002BD01A4D286884422FD0FFF70DFD2046D7
:104CC000FEF788FFE8B1201DFFF75CFCE06A0121D8
:104CD0002A69814011432961114900EB800001EBF1
:104CE0008000211DFFF7ECFCE06A2968C96A884250
:104CF00007D30C494FF080500860BFF34F8FBFF3CC
:104D00006F8FBDE87040FFF707BD502080F311881A
:104D1000BFF34F8FBFF36F8FFEE770BDD40000204D
:104D20003C24002004ED00E028B107490A6A026033
:104D3000C96841607047502080F31188BFF34F8FDE
:104D4000BFF36F8FFEE70000D40000201CB51848A9
:104D50000024CDE900402346402216A1174800F068
:104D600085FC012803D100F049FE012809D0401C30
:104D70001CD1502080F31188BFF34F8FBFF36F8F8A
:104D8000FEE7502080F31188BFF34F8FBFF36F8F82
:104D900007484FF0FF312C38816201214161C46026
:104DA00007480460BDE81C4000F0A8B91CBD000025
:104DB0000001002049444C4500000000BD370008B8
:104DC000A000002070B50446FFF786FC264D04B90C
:104DD0002C68201DFFF7D6FB58B9E06A234A00EB88
:104DE000800152F8211021B90121814028698843AE
:104DF0002861A06A18B104F11800FFF7C3FB1B4833
:104E0000211DDC30FFF75CFCFFF786FC686928B1E8
:104E1000FFF762FCFEF770FEFFF77EFC2868844215
:104E200013D1686990B1286B38B1502080F3118894
:104E3000BFF34F8FBFF36F8FFEE70D494FF08050E8
:104E40000860BFF34F8FBFF36F8F70BD0748A9682D
:104E5000DC300068884202D10020286070BDBDE8C7
:104E6000704000F00FB80000D40000203C24002067
:104E700004ED00E00248016B491C0163704700002B
:104E8000D40000201A4810B5016B11B10121C16195
:104E900010BD0021C161174909688163436B9942C4
:104EA00004D90268CB1A546D2344536541630169E8
:104EB000114AB1FA81F1C1F11F0101EB810152F8F0
:104EC00021306BB102EB810101F108034A6852689D
:104ED0004A609A4201D152684A60D168016010BDAF
:104EE000502080F31188BFF34F8FBFF36F8FFEE721
:104EF000D4000020A00000203C24002070B50E4605
:104F0000040009D0300E0FD0502080F31188BFF379
:104F10004F8FBFF36F8FFEE7502080F31188BFF3F0
:104F20004F8FBFF36F8FFEE7FFF7D6FB256825EAAB
:104F300006002060FFF7F0FB284670BD10B51C206E
:104F4000FEF7C4FE040004D000202060201DFFF7FF
:104F500091FB204610BD2DE9F04100278846040052
:104F60000AD05FEA18600FD0502080F31188BFF399
:104F70004F8FBFF36F8FFEE7502080F31188BFF390
:104F80004F8FBFF36F8FFEE7261D04F10C05FFF76F
:104F900071FF2168F06841EA0801216017E0D0E95B
:104FA000001601F07F425301236821F07F4102D4B3
:104FB0000B4203D10AE031EA030307D1D20100D545
:104FC0000F43216841F0007100F07AFC3046A8429E
:104FD000E5D12068B843206000F0AEFC2068BDE851
:104FE000F081000013460A460146014800F05EBD0C
:104FF000714600082DE9F0479A46DDF8209090466A
:105000000D4604004FF0000709D0280E0FD05020A5
:1050100080F31188BFF34F8FBFF36F8FFEE75020EF
:1050200080F31188BFF34F8FBFF36F8FFEE71DB181
:1050300000F048FB40B112E0502080F31188BFF32C
:105040004F8FBFF36F8FFEE7B9F1000F07D05020ED
:1050500080F31188BFF34F8FBFF36F8FFEE7FFF729
:1050600009FF2668524629463046FEF7CDFD30B18D
:10507000B8F1000F1AD02068A843206016E0B9F1FB
:10508000000F13D0B8F1000F01D04FF08077BAF1C4
:10509000000F01D047F0806745EA07014A46201D0E
:1050A000FFF79AFD00F048FC18B10AE000F044FC5C
:1050B0001FE011494FF080500860BFF34F8FBFF3DE
:1050C0006F8FFFF7C9FA0646800110D4FFF704FB83
:1050D0002668524629463046FEF796FD28B1B8F1BB
:1050E000000F02D02068A8432060FFF715FB26F0D0
:1050F0007F463046BDE8F08704ED00E01CB5194955
:1051000008780190FF20087008788DF800009DF85D
:105110000000154A00F0500010700720906005E074
:105120009DF800305B008DF80030401E9DF8003087
:105130001B06F5D4000200F4E0609060019808704E
:105140000A48016841F470010160016841F0704152
:105150000160FFF723FB00205060FAF7E7FF002013
:105160001CBD000000E400E01801002020ED00E07C
:1051700010B5502080F31188BFF34F8FBFF36F8FAE
:1051800000F0B4FA18B104494FF0805008600020D4
:1051900080F3118810BD000004ED00E02DE9F0411E
:1051A00017460E46050016D0EEB105FB06F050304E
:1051B000FEF78CFD04000CD004F15000AEB120606D
:1051C000C4E90F562046012100F0C8F8204684F8B3
:1051D0004C70BDE8F081502080F31188BFF34F8FF1
:1051E000BFF36F8FFEE70020E1E72460E8E70000EF
:1051F0002DE9FF4F002683B09B468A46040003D06A
:10520000BAF1000F08D011E0502080F31188BFF3ED
:105210004F8FBFF36F8FFEE7206C38B1502080F3C3
:105220001188BFF34F8FBFF36F8FFEE700F04AFA8C
:10523000DFF824814FF000094FF0805748B90598F6
:1052400038B1502080F31188BFF34F8FBFF36F8FB9
:10525000FEE7FFF741FAA56B45B351462046E668E5
:10526000FEF732FABBF1000F13D0E660606A50B16E
:1052700004F1240000F0EAFA28B1C8F80070BFF386
:105280004F8FBFF36F8FFFF747FA012007B0BDE8DC
:10529000F08F6D1EA563206810B9FEF783FD606076
:1052A00020690028EFD004F11000E3E7059808B169
:1052B0001EB106E0FFF730FA27E06846FFF734FD3D
:1052C0000126FFF729FAFFF7D5FDFFF705FA94F954
:1052D0004400401C01D184F8449094F94500401CDE
:1052E00001D184F84590FFF717FA05A9684600F048
:1052F00087F9002820460AD0FEF7A2FC00F01CFB2C
:105300002046FEF701FB0028A3D00020BEE7FEF7F1
:10531000FBFAD8B1206830B9FFF7DEF96068FFF713
:1053200083FCFFF7F9F904F124000599FFF720FC4D
:105330002046FEF785FC00F0FFFA002889D1C8F866
:105340000070BFF34F8FBFF36F8F82E72046FEF7E9
:1053500077FC00F0F1FA7CE704ED00E070B50D4653
:10536000040025D0FFF7B8F9D4E90F20216802FB2B
:10537000001161600021A1632168A1600A46D4E99F
:105380000F01401E00FB0121E16021464FF0FF307C
:1053900001F8440F487004F110008DB1FFF76AF96D
:1053A00004F12400FFF766F9FFF7B6F9012070BD9C
:1053B000502080F31188BFF34F8FBFF36F8FFEE74C
:1053C00021690029F0D000F041FA0028ECD004490E
:1053D0004FF080500860BFF34F8FBFF36F8FE3E74C
:1053E00004ED00E02DE9FF4782B01D468A464FF0EC
:1053F0000008040003D0BAF1000F08D011E05020DB
:1054000080F31188BFF34F8FBFF36F8FFEE7206CDF
:1054100038B1502080F31188BFF34F8FBFF36F8FE7
:10542000FEE7022D0AD1E06B012807D0502080F35F
:105430001188BFF34F8FBFF36F8FFEE700F042F983
:105440003F4F4FF000094FF0805648B9049838B1EB
:10545000502080F31188BFF34F8FBFF36F8FFEE7AB
:10546000FFF73AF9A06BE16B884207D3022D05D014
:105470000498D0B1B8F1000F1AD01EE02A46514668
:105480002046FEF734F9616A19B104F1240000F0F6
:10549000DDF920B13E60BFF34F8FBFF36F8FFFF791
:1054A0003BF9012006B0BDE8F087FFF735F922E0AF
:1054B0006846FFF739FC4FF00108FFF72DF9FFF7B9
:1054C000D9FCFFF709F994F94400401C01D184F894
:1054D000449094F94500401C01D184F84590FFF7B1
:1054E0001BF904A9684600F08BF830B12046FEF79E
:1054F000A7FB00F021FA0020D4E7FFF7EDF8A06B3E
:10550000E16B884213D1FFF707F904F11000049909
:10551000FFF72EFB2046FEF793FB00F00DFA002864
:105520009ED13E60BFF34F8FBFF36F8F98E7FFF7B9
:10553000F3F82046FEF784FB00F0FEF990E7000048
:1055400004ED00E02DE9F0471F469046894604002F
:1055500003D0B9F1000F08D011E0502080F311887A
:10556000BFF34F8FBFF36F8FFEE7206C38B1502031
:1055700080F31188BFF34F8FBFF36F8FFEE7022FC9
:105580000AD1E06B012807D0502080F31188BFF3C7
:105590004F8FBFF36F8FFEE7FFF710F95020EFF347
:1055A000118680F31188BFF34F8FBFF36F8FA06B0D
:1055B000E16B884206D3022F04D0002086F31188C5
:1055C000BDE8F08794F945503A4649462046FEF733
:1055D0008EF8681C04D06D1C84F845500120EDE75E
:1055E000606A0028FAD004F1240000F02FF90028A6
:1055F000F4D0B8F1000FF1D00121C8F80010EDE7A8
:1056000070B50D46040019D005B3FFF765F8164ACA
:10561000D1682868431C0FD02368126A934202D0D5
:1056200062688A421AD96268891A814216D2401A7F
:1056300028602046FFF778FB002410E0502080F31C
:105640001188BFF34F8FBFF36F8FFEE7502080F3B9
:105650001188BFF34F8FBFF36F8FFEE70124FFF771
:105660005BF8204670BD0000D40000202DE9FF5FEC
:105670008346DDE90E87994616468A469000FEF776
:1056800025FB05001AD06020FEF720FB040012D095
:1056900025630021CDE90241CDE900874B46324622
:1056A00051465846FEF79EF82046FDF755FF01206B
:1056B00004B0BDE8F09F2846FFF742F84FF0FF30F6
:1056C000F6E700000548416919B1006B18B10020E8
:1056D000704701207047022070470000D40000206E
:1056E0000148C06870470000D40000202DE9F04157
:1056F0002E4C0027206B40B1A069401CA061E069DE
:1057000000B101273846BDE8F081E668761CE66006
:1057100013D1E06B006838B1502080F31188BFF3DB
:105720004F8FBFF36F8FFEE7E06B216CE163206466
:10573000206A401C2062FEF7DFF9A06ADFF8708063
:10574000864209D3E06B006880B1E06BC068C56831
:10575000686886420DD2A0622068C06A00EB8001B2
:1057600058F821000128CAD90127C8E74FF0FF30B7
:10577000F1E7281DFEF706FFA86A18B105F1180029
:10578000FEF700FFE86A012122698140114321618F
:1057900000EB800108EB8100291DFEF791FFE86A0C
:1057A0002168C96A8842CDD30127CBE7D400002005
:1057B0003C24002070B504004FF0000140D0214D82
:1057C0002868844207D0502080F31188BFF34F8FA0
:1057D000BFF36F8FFEE7206D38B1401E2065E36C8C
:1057E000E26A9A422CD040B12AE0502080F311881E
:1057F000BFF34F8FBFF36F8FFEE7201DFEF7C2FE92
:10580000114A012150B9E06A00EB800352F82330BD
:1058100023B92B6901FA00F083432B61E06CE0624D
:10582000C0F10700A061E06A2B698140194329613A
:1058300000EB800002EB8000211DFEF741FF0121FB
:10584000084670BDD40000203C2400202DE9F04122
:10585000C068C468ACB104F118000746FEF792FEB8
:10586000154D286B0126A0B139461448FEF728FFD4
:10587000E06A2968C96A88421CD90120EE61BDE846
:10588000F081502080F31188BFF34F8FBFF36F8FEB
:10589000FEE7201DFEF776FEE16A2A6906FA01F0AE
:1058A0001043286101EB81000449B43901EB800009
:1058B000211DDBE70020E2E7D4000020F0240020D7
:1058C00070B51B4E326B02B341F000410160C468F9
:1058D0001CB3FEF757FE201DFEF754FEE16A0125BA
:1058E000326905FA01F01043306101EB8100114982
:1058F00001EB8000211DFEF7E3FEE06A3168C96A12
:10590000884212D90120F56170BD502080F31188C2
:10591000BFF34F8FBFF36F8FFEE7502080F31188E6
:10592000BFF34F8FBFF36F8FFEE7002070BD000005
:10593000D40000203C2400202DE9F0472C4D002409
:105940002746286B38B1FEF7C7FE286B401E286338
:10595000286B40B146E0502080F31188BFF34F8F91
:10596000BFF36F8FFEE7A968224E0120D1B3A6F1E5
:10597000B40980463068E8B1F068C46804F11800E2
:10598000FEF700FE201DFEF7FDFDE06A2A6908FA19
:1059900000F11143296100EB800109EB8100211D19
:1059A000FEF78EFEE06A2968C96A8842E2D3C5F82C
:1059B0001C80DFE70CB1FEF79FF8AC6944B14646A6
:1059C000FFF794FE00B1EE61641EF9D10020A861DA
:1059D000E86938B10849012738070860BFF34F8FDD
:1059E000BFF36F8FFEF798FE3846BDE8F0870000E2
:1059F000D4000020F024002004ED00E01CB5FDF7E9
:105A000013FE0C48006860B10A490220091DCDE967
:105A100000010023802208A10948FFF727FE002883
:105A200007D1502080F31188BFF34F8FBFF36F8FE2
:105A3000FEE71CBDA8000020546D72205376630061
:105A40001D3C00082DE9FF411E46134602000A9D39
:105A50004FF0000016D0144C2768002F0FD0CDE96E
:105A600000130292062917DAFFF72CFE02284FF0E6
:105A700000030FD0002269462068FFF7B3FC04B092
:105A8000BDE8F081502080F31188BFF34F8FBFF342
:105A90006F8FFEE72A46EEE7002332466946384616
:105AA000FFF750FDEBE70000A80000201FB51C46E3
:105AB0006FF00103CDE90030CDE902120448002364
:105AC000224669460068FFF73DFD04B010BD0000A6
:105AD000A8000020030406080C1018203000000065
