:020000040800F2
:1000000070290020A101000817230008932100088F
:1000100015230008FF070008152A0008000000004B
:1000200000000000000000000000000009010008BE
:1000300073080008000000004D010008C5230008F7
:10004000BB010008BB010008BB010008BB010008A0
:10005000BB010008BB010008750800087B08000808
:10006000BB010008BB010008BB010008BB01000880
:10007000010800080D0800081908000825080008F4
:10008000310800083D080008BB010008BB0100085A
:10009000BB010008BB010008BB010008BB01000850
:1000A00000000000BB010008BB010008BB01000804
:1000B00091240008BB010008BB010008BB01000837
:1000C000BB010008BB010008BB010008BB01000820
:1000D000BB010008F1290008FD290008092A0008D1
:1000E000BB010008BB010008BB010008BB01000800
:1000F000BB010008DFF80CD000F0B6FA004800475A
:100100005146000870290020224B19680868B0E8A1
:10011000F00F80F30988BFF36F8F4FF0000080F37A
:1001200011884EF00D0E7047000000000648006870
:10013000006880F3088862B661B6BFF34F8FBFF3E3
:100140006F8F00DF00BF00BF08ED00E0EFF3098014
:10015000BFF36F8F0F4B1A6820E9F00F106008B5DE
:100160004FF0500080F31188BFF34F8FBFF36F8FB4
:1001700006F046FD4FF0000080F31188BDE808400E
:1001800019680868B0E8F00F80F30988BFF36F8F33
:10019000704700BF4C010020EFF30580704700005E
:1001A0000648804706480047FEE7FEE7FEE7FEE711
:1001B000FEE7FEE7FEE7FEE7FEE7FEE74124000874
:1001C000F500000840EA01039B0703D009E008C9D5
:1001D000121F08C0042AFAD203E011F8013B00F80C
:1001E000013B521EF9D27047D2B201E000F8012B58
:1001F000491EFBD270470022F6E710B513460A46A7
:1002000004461946FFF7F0FF204610BD421C10F8C7
:10021000011B0029FBD1801A7047034611F8012BFE
:1002200000F8012B002AF9D11846704730B5054671
:100230000020034600E05B1C934205D2EC5CC85CE6
:10024000201A01D1002CF6D130BD0246C9B200E01F
:10025000401C0378002BFBD102E003788B4203D0D3
:10026000401E9042F9D20020704730B50B4601463F
:1002700000202022012409E021FA02F59D4205D345
:1002800003FA02F5491B04FA02F52844151EA2F1EF
:100290000102F1DC30BD2DE9F05F054600209246F9
:1002A0009B4688460646814640241BE02846414638
:1002B0004746224600F0F9F953465A46C01A914182
:1002C00010D311461846224600F0E0F92D1A67EBCC
:1002D00001084F4622460120002100F0D7F917EB14
:1002E00000094E41201EA4F10104DFDC48463146DE
:1002F0002A464346BDE8F09F2DE9FE4F804681EA3D
:100300000300C00F0C46009021F0004123F000458F
:10031000B8EB0200A94105D24046214690461C4652
:100320000B46024623F00040104347D0270DC7F389
:100330000A00C3F30A510290401A019040286BDA78
:10034000C3F3130040F4801B0098924620B10023B1
:10035000D2EB030A63EB0B0B01985946C0F1400244
:10036000504600F093F906460D4650465946019A0C
:1003700000F0ABF910EB08006141002487EA11524C
:1003800084EAE7731A4340D0009A62B3019A012AC3
:100390004FEA075215DC001B61EB02014FF00042EF
:1003A00002EA0752CDE90042001C41F580113246B5
:1003B0002B4600F0ABF903B0BDE8F08F4046214674
:1003C000F9E7001B61EB0201001C41F580130018E6
:1003D0005B412018A2F5001747EB030140EAD570F6
:1003E000B6196D4111E06D084FEA360645EAC07551
:1003F0004FEA0752001B61EB0201001C41F580111E
:1004000049084FEA30000019514132462B4603B0EB
:10041000BDE8F04F00F06BB90098012240000023C6
:10042000D0EB020263EBE073009821464FEAE074E0
:10043000B8EB000061EB0401E9E783F000435BE700
:1004400081F0004158E72DE9FE4F81EA030404F0F2
:10045000004421F0004100944FF0000B23F00043D2
:1004600050EA01045ED052EA03045BD0C3F30A549D
:10047000C1F30A552C44A4F2F3340194A0FB0254B6
:10048000C1F3130141F48011C3F3130343F4801348
:1004900001FB024400FB034E840A970A44EA81549C
:1004A00047EA8357A4FB076802958D0A05FB078579
:1004B0004FEA932C04FB0C542705029D4FEA065883
:1004C00047EA1637B5EB08056EEB070C870E920E60
:1004D00047EA811742EA8312A7FB0201B6EB0B0140
:1004E00064EB00042B0D43EA0C335E1844EB1C5004
:1004F000DA465146E7FB0201C5F313044FEA0B331A
:1005000043EA14534FEA0432019C43EA0603A4F180
:100510000C040294009CCDE900B400F0F7F803B09D
:10052000BDE8F08F00200146F9E72DE9F04D81EAA2
:10053000030404F0004B21F0004514464FF0000A7C
:1005400023F0004150EA050220D054EA01021DD0F8
:10055000C5F30A570246C5F31303C1F31300C1F3F1
:100560000A5640F4801543F48013A7EB0608101BCD
:10057000D64608F2FD3873EB050002D308F10108F6
:1005800001E092185B41B8F1000F03DA0020014648
:10059000BDE8F08D00204FF48011064684460EE041
:1005A000171B73EB050705D3121B63EB050306430B
:1005B0004CEA010C49084FEA300092185B4150EABE
:1005C0000107EDD152EA030012D082EA040083EA67
:1005D0000501084305D0101BAB4106D201220023C0
:1005E00006E000224FF0004302E06FF001025310DA
:1005F0001AEB06004CEB085110EB0A0041EB0B0123
:10060000BDE8F04D00F073B8C1F30A52C1F3130115
:1006100040F2FF3341F480119A4202DA0020014691
:10062000704740F233439A42A2F2334202DC524214
:1006300000F03BB800F02AB830B5041E71F1000498
:1006400004DB4FF00044404264EB0101141E73F1DF
:10065000000405DB1C464FF00043524263EB0403E9
:10066000994208BF904230BD064C074D06E0E06855
:1006700040F0010394E8070098471034AC42F6D3E9
:10068000FFF73CFDA0790008C0790008202A04DBB0
:10069000203A00FA02F1002070479140C2F1200395
:1006A00020FA03F3194390407047202A04DB203AD4
:1006B00021FA02F00021704721FA02F3D040C2F182
:1006C00020029140084319467047202A06DBCB17C9
:1006D000203A41FA02F043EAE07306E041FA02F3FD
:1006E000D040C2F12002914008431946704710B52E
:1006F000141E73F1000408DA401C41F10001921845
:100700005B411A4301D120F0010010BD2DE9F04DED
:1007100092469B4611B1B1FA81F202E0B0FA80F242
:1007200020329046FFF7B2FF04460F4640EA0A0027
:1007300041EA0B0153465A46084313D0114653EA87
:10074000010019D0C8F140025046FFF7AEFF054640
:100750000E46504659464246FFF798FF084305D0DB
:10076000012004E020463946BDE8F08D0020054315
:1007700046EAE0762C4337430A986305E40AA0EB87
:1007800008000022FD0A44EA47540A3002D500203E
:100790000146E9E7010510196941DDE9084500193D
:1007A0006941BDE8F04DA2E770B58C1810F8015B07
:1007B00015F0070301D110F8013B2A1106D110F8FA
:1007C000012B03E010F8016B01F8016B5B1EF9D1FE
:1007D0002B0705D40023521E0DD401F8013BFAE784
:1007E00010F8013BCB1A921C03E013F8015B01F8EF
:1007F000015B521EF9D5A142D8D3002070BDFEE79F
:10080000014800F055B800008C070020014800F0B6
:100810004FB8000048070020014800F049B8000028
:100820007C060020014800F043B800003806002094
:10083000014800F03DB80000C0060020014800F06B
:1008400037B800000407002030B590F8405001246C
:10085000AC40C56B6C60046863604368102B036830
:1008600003D099600068C26030BD9A600068C160C2
:1008700030BD7047012000F0F1B8022000F0EEB862
:1008800001680A6822F00E020A6001680A6822F014
:1008900001020A6090F84020C36B012101FA02F2C4
:1008A0005A6080F82110002180F820100846704717
:1008B000F0B4C16B0D6801680C68066C042202FA82
:1008C00006F32B420FD063070DD50B689B0603D4AC
:1008D0000B6823F004030B6090F840108A40C16B52
:1008E0004A60C16A1BE0022303FA06F72F424FF069
:1008F000000C4FF0010216D0A70714D50C68A4060F
:1009000005D40C6824F00A040C6080F8212090F8CB
:1009100040108B40C16B4B6080F820C0816A002979
:1009200018D0F0BC08470823B3402B4212D023074D
:1009300010D50B6823F00E030B6090F84010C36BCA
:1009400002FA01F15960826380F8212080F820C00A
:10095000016BE4E7F0BC704730B548B308C81549EF
:1009600014221944B1FBF2F18900C1631249816379
:10097000022141771A6843F6F0718A43D0E90014E6
:100980002143D0E902452C432143046921434469B2
:10099000214384692143114319600021416281622E
:1009A000C16201634163012242770177084630BD8D
:1009B000012030BDF89FFDBF0060024070B50446C5
:1009C00090F82000002501280CD0012084F8200098
:1009D00094F821600020012E06D084F82000022522
:1009E000284670BD022070BD022684F82160A063F5
:1009F0002068066826F0010606602046FFF724FFFF
:100A0000E06A00282068016802D041F00E0106E08B
:100A100021F0040101602068016841F00A010160D1
:100A20002068016841F001010160D9E72DE9F0413A
:100A300007460024074E084D06E000BF56F8241074
:100A400038468847641CE4B228788442F6D3BDE86F
:100A5000F0810000F404002014010020044910B5C6
:100A60000A68024202D00860FFF7E0FF10BD0000F4
:100A7000140401402DE9F84FDFF864B100234FF072
:100A8000010C4FF0030A4FF00F090BF1040EA0E028
:100A90000CFA03F6324072D04C68022C01D0122CB2
:100AA0000ED1DC0800EB8408D8F820405D07EF0E7B
:100AB00009FA07F5AC430D69BD402543C8F820503D
:100AC00007685D0091F804800AFA05F408F003084D
:100AD000A74308FA05F848EA0708C0F800804F68FD
:100AE000012F05D0022F03D0112F01D0122F11D1C9
:100AF0008768D1F80C80A74308FA05F848EA070888
:100B0000C0F808804768B7430E79C6F300169E40C8
:100B10003E434660C668A6438C68AC403443C4601C
:100B20004C68E40054D52F4C256845F0010525603C
:100B3000246823F0030504F0010400942A4C2544A2
:100B4000AF689C07240F09FA04F6B743274EB0425A
:100B500001D1002615E0264EB04201D1012610E059
:100B6000244EB04201D102260BE0234EB04201D107
:100B7000032606E0214EB04202D1042601E027E020
:100B80000526A6403E43AE60DBF800405D464E6859
:100B90009443F60300D514432C60DEF800407546FC
:100BA0004E689443B60300D514432C600C4D0835B1
:100BB0002C684E689443F60200D514432C60084D0F
:100BC0000C352C684E689443B60200D514432C6053
:100BD0005B1C0A6832FA03F47FF45AAFBDE8F88F61
:100BE00000040140203802400000014000000240A3
:100BF0000004024000080240000C024000100240C5
:100C00000069084000D0012070470AB18161704737
:100C10000904FBE701480068704700001801002044
:100C200002480168491C016070470000180100205B
:100C300010B5032000F0B4F8002000F005F800F033
:100C40003BF8002010BD000000B5014687B000222F
:100C50001C2000F085F81C2000F076F8134801688D
:100C600041F001010160006805A900F00100069053
:100C7000684600F091F900F0B5F90D494FF0804257
:100C8000B0FBF1F10B48491E0260416040F2E732CF
:100C90000021C0E90321816000F0DAFD10B10120DC
:100CA00007B000BD034800F0EFFDF9E7243802402B
:100CB00040420F00D0070020224808B5016841F0EB
:100CC00000410160016801F000410091011F0A68C4
:100CD00042F001020A60096801F001010091016817
:100CE00041F080510160006800F0805000900320C6
:100CF00000F056F8002211466FF00B0000F030F8BB
:100D0000002211466FF00A0000F02AF80022114676
:100D10006FF0090000F024F800221146501F00F087
:100D20001FF800221146101F00F01AF800220F21B0
:100D3000901E00F015F800220F21BDE80840501E5B
:100D400000F00EB82438024000F01F02012191404B
:100D50004009800000F1E020C0F800117047000059
:100D6000F0B40E4B1B680C46C3F30223C3F1070516
:100D7000042D00D90425191D072901D2002300E004
:100D8000DB1E012606FA05F1491E214099409E40CE
:100D9000761E16403143F0BC01F0BEBA0CED00E007
:100DA000064900F0070208684FF6FF03184040EAC2
:100DB0000220034A10430860704700000CED00E079
:100DC0000000FA052DE9F047DFF8BC8105460E4624
:100DD000D8F8000000F00100B04214D2012E05D175
:100DE000D8F8001041F00401C8F80010D8F800103D
:100DF00021F001013143C8F80010D8F8000000F0DC
:100E00000100B04271D12878604C800705D5206878
:100E1000A96820F0F000084320602878C00771D04E
:100E20005A4A5A4B69680120083A2C33022910D0DB
:100E300003292ED001292FD05FEA402797FAA7FC7B
:100E4000BCFA8CFC4CF0200C5FEA5C1C04D01268ED
:100E500003E04FF40037F1E71A6897FAA7F3B3FA03
:100E600083F303F01F039840024262D0206820F011
:100E7000030008432060FFF7CDFE6968074641F292
:100E80008830022910D003291CD00129814626D0A0
:100E900034E04FF00077D1E70227CFE7FFF7BAFE43
:100EA000C11B494501D926E081462068C0F3810075
:100EB0000228F3D126E000BFFFF7ACFEC11B494575
:100EC00001D918E081462068C0F381000328F3D1DE
:100ED00018E000BFFFF79EFEC11B49450BD82068F4
:100EE000C0F381000128F5D10CE022E0FFF792FE6B
:100EF000C11B494502D90320BDE8F087206810F0E6
:100F00000C0FF3D1D8F80010404601F00101B142B6
:100F100011D9012E03D1016841F00401016001687B
:100F200021F0010131430160006800F00100B0428E
:100F300001D00120E0E72878400705D52068E9685E
:100F400020F4E060084320602878000706D5206878
:100F5000296920F4605040EAC100206000F072F876
:100F60002168F02292FAA2F201F0F001B2FA82F2C4
:100F7000D140074A515CC840064908600020FFF78D
:100F800063FE0020B8E70000003C02400838024041
:100F900069780008000000200F2202600C4A1368E4
:100FA00003F003034360136803F0F00383601368E6
:100FB00003F4E063C36012684FF4E06303EAD20213
:100FC00002610448006800F00100086070470000FA
:100FD00008380240003C02400148006870470000A9
:100FE0000000002008480949006809684FF4E062E1
:100FF00092FAA2F201F4E061B2FA82F2D140044A1C
:10100000515CC840704700000000002008380240D2
:101010007978000808480949006809684FF4605267
:1010200092FAA2F201F46051B2FA82F2D140044A7B
:10103000515CC840704700000000002008380240A2
:10104000797800081B4A11681B4801F00C03042B37
:1010500012D0082B10D00C2B0FD0101F006800F4FA
:1010600060414FF4604090FAA0F0B0FA80F0C140C7
:101070004FF40040491C884070474FF4701393FAB6
:10108000A3F301F47010B3FA83F3D8400B4B01F4CF
:1010900040011268185C4FF4400393FAA3F3B3FACB
:1010A00083F3D940D203044A491C5043B0FBF1F00A
:1010B00070470000083802400024F40060780008FF
:1010C0002DE9F84F07460078FB4EFC4DC0074FF066
:1010D000010428D0F848083001684FF40038C1F303
:1010E0008101022907D00168C1F3810103291BD1C5
:1010F0000068C00318D598FAA8F0B0FA80F040F064
:101100002000400901D0306800E0286898FAA8F172
:10111000B1FA81F101F01F0104FA01F108425CD03B
:10112000786800287BD058E0786801280AD008B198
:10113000052811D0306820F480303060306820F409
:10114000802002E0306840F480303060786828B356
:10115000FFF760FD81460BE0306840F4802030608E
:10116000F0E700BFFFF756FDA0EB0900642872D836
:1011700098FAA8F0B0FA80F040F02000400901D0C1
:10118000306800E0286898FAA8F1B1FA81F101F01E
:101190001F0104FA01F10842E4D01EE0FFF73AFD16
:1011A000814605E0FFF736FDA0EB09006428DED894
:1011B00098FAA8F0B0FA80F040F02000400901D081
:1011C000306800E0286898FAA8F1B1FA81F101F0DE
:1011D0001F0104FA01F10842E4D13878DFF8E08217
:1011E00080074FF0000B4FF002095FD5B24808307E
:1011F0000168C1F38101012907D00168C1F38101B0
:1012000003291CD10068C00319D499FAA9F0B0FAD7
:1012100080F040F02000400902D0306801E086E014
:10122000286899FAA9F1B1FA81F101F01F0104FAD5
:1012300001F108422BD0F868012878D127E0F8683E
:10124000A8B394FAA4F0B0FA80F048F82040FFF771
:10125000E1FC824606E066E1FFF7DCFCA0EB0A0059
:10126000022884D899FAA9F1B1FA81F141F020015C
:10127000490901D0316800E0296899FAA9F0B0FA6B
:1012800080F000F01F0004FA00F00142E4D08A4828
:10129000001D01684FF4F85393FAA3F33A69B3FAC7
:1012A00083F321F4F8519A401143016025E0FFE7F0
:1012B00094FAA4F1B1FA81F148F821B0FFF7AAFC41
:1012C000824605E0FFF7A6FCA0EB0A000228C8D87A
:1012D00099FAA9F0B0FA80F040F02000400901D05E
:1012E000306800E0286899FAA9F1B1FA81F101F0BB
:1012F0001F0104FA01F10842E4D138784FF4007A72
:10130000C0067CD56C480830006810F00C0F0FD078
:10131000B9694FF48070002972D090FAA0F0B0FA49
:1013200080F048F82040FFF775FC00907EE087E0F1
:101330009AFAAAF0B0FA80F040F02000400901D0FB
:10134000306800E028689AFAAAF1B1FA81F101F058
:101350001F0104FA01F1084202D0B86900286FD0D9
:101360005548396A001D006800F4604081421AD96E
:10137000084600F0E1FF002862D14F48001D0168D7
:101380003A6A21F460411143016001684FF07F43E4
:1013900093FAA3F3FA69B3FA83F321F07F419A40F9
:1013A0001143016018E04448001D026822F46042C5
:1013B0000A43026001684FF07F4393FAA3F3FA698E
:1013C000B3FA83F321F07F419A4011430160386AF8
:1013D00000F0B2FF0028CFD14FF4604191FAA1F1A3
:1013E000386AB1FA81F1C8404FF40041401C814095
:1013F000314808300068F02200F0F00001E070E0B1
:1014000040E092FAA2F2B2FA82F2D0402D4A105C89
:10141000C1402D4801600020FFF716FC61E000BFCD
:10142000FFF7F8FB0099401A02287CD89AFAAAF034
:10143000B0FA80F040F02000400902D0306801E0AE
:10144000BCE128689AFAAAF1B1FA81F101F01F0112
:1014500004FA01F10842E3D01748001D01683A6A16
:1014600021F460411143016001684FF07F4393FA1A
:10147000A3F3FA69B3FA83F321F07F419A40114351
:1014800001602EE090FAA0F0B0FA80F048F820B0A9
:10149000FFF7C0FB009005E0FFF7BCFB0099401A86
:1014A0000228C2D89AFAAAF0B0FA80F040F02000E0
:1014B00040090BD030680AE000380240343802405E
:1014C00000004742697800080000002028689AFA66
:1014D000AAF1B1FA81F101F01F0104FA01F1084209
:1014E000DAD13878000753D5786948B394FAA4F074
:1014F000B0FA80F008EB8000C0F88046FFF78AFB66
:10150000009005E0FFF786FB0099401A02288CD86E
:1015100099FAA9F0B0FA80F040F04000B4EB501F07
:1015200002D1306801E08EE0286899FAA9F1B1FA99
:1015300081F101F01F0104FA01F21042E2D027E02C
:1015400094FAA4F1B1FA81F108EB8101C1F880B6F7
:10155000FFF760FB009005E0FFF75CFB0099401A85
:10156000022870D899FAA9F0B0FA80F040F0400053
:10157000B4EB501F01D1306800E0286899FAA9F156
:10158000B1FA81F101F01F0104FA01F21042E3D136
:10159000387840077BD59B484FF000090068C000B1
:1015A0000AD49848016841F08051016000684FF00A
:1015B000010900F08050009093480168C90511D4DA
:1015C000016841F480710160FFF724FB009005E0A1
:1015D000FFF720FB0099401A642834D88A48006835
:1015E000C005F5D5B86801280AD008B1052811D082
:1015F000286820F480702860286820F4806002E069
:10160000286840F480702860B86848B3FFF702FB90
:1016100000900DE0286840F480602860F0E700BF8B
:10162000FFF7F8FA0099411A41F2883081420AD84E
:101630009AFAAAF0B0FA80F040F04000B4EB501FE4
:1016400002D1306801E095E028689AFAAAF1B1FA6F
:1016500081F101F01F0104FA01F21042E0D022E012
:10166000FFF7D8FA009007E0FFF7D4FA0099411A83
:1016700041F2883081427DD89AFAAAF0B0FA80F01F
:1016800040F04000B4EB501F02D1306801E012E09E
:1016900028689AFAAAF1B1FA81F101F01F0104FA5F
:1016A00001F21042E0D1B9F1000F04D055480168B1
:1016B00021F080510160786AE8B3DFF84891A9F120
:1016C0001C09D9F80010C1F38101032976D0022842
:1016D0004FF080714FF0007A58460BD091FAA1F18B
:1016E000B1FA81F148F82100FFF794FAB0460746B5
:1016F00056466DE04FF0807191FAA1F1B1FA81F197
:101700008A0042495050FFF785FAB3468046564654
:1017100006E000BFFFF77EFAA0EB0800022854D8CD
:1017200096FAA6F0B0FA80F040F02000400903D00D
:10173000DBF8000001E061E0286896FAA6F1B1FA52
:1017400081F101F01F0104FA01F10842E2D1D7E969
:101750000A103A6BD9F80030014323F47D031A4391
:101760001143C9F800104FF0807090FAA0F0B0FA61
:1017700080F000E029E0810024480C50FFF74AFA8D
:10178000074604E0FFF746FAC01B02281DD896FA68
:10179000A6F0B0FA80F040F02000400902D0DBF85B
:1017A000000000E0286896FAA6F1B1FA81F101F094
:1017B0001F0104FA01F10842E4D01FE020E000BF5D
:1017C000FFF728FAC01B022802D90320BDE8F88FD2
:1017D00096FAA6F0B0FA80F040F02000400902D05E
:1017E000D8F8000000E0286896FAA6F1B1FA81F175
:1017F00001F01F0104FA01F10842E1D10020E5E700
:101800000120E3E724380240007000400000474216
:101810004FF0E0210428086903D020F0040008619B
:10182000704740F00400FAE710B5401EB0F1807F29
:1018300001D3012010BD4FF0E02460610F2160173B
:1018400000F06AFD0020A06107202061002010BD8B
:1018500010B5040003D094F8350010B107E0012062
:1018600010BD002084F83400204600F00CF802205F
:1018700084F83500211D206800F010FE012084F856
:101880003500002010BD70470168CA6842F00102AF
:10189000CA600068016841F00101016000207047E2
:1018A000704770B50446006801694FF00005C943F0
:1018B000890715D4C168C943890711D4E91E01619C
:1018C00001202075206880698007204602D0FFF73C
:1018D000E7FF04E000F078F8204600F076F8257580
:1018E00020680169C943490717D4C168C94349073A
:1018F00013D46FF004010161022020752068806913
:1019000010F4407F204602D0FFF7CAFF04E000F049
:101910005BF8204600F059F8257520680169C94335
:10192000090716D4C168C943090712D46FF008012A
:101930000161042020752068C0698007204602D01C
:10194000FFF7AEFF04E000F03FF8204600F03DF85E
:10195000257520680169C943C90617D4C168C94300
:10196000C90613D46FF010010161082020752068AA
:10197000C06910F4407F204602D0FFF791FF04E0D9
:1019800000F022F8204600F020F825752068016953
:10199000C943C90708D1C168C943C90704D1891E11
:1019A0000161204600F012F820680169C943490628
:1019B00009D4C168C943490605D46FF040010161EB
:1019C000204600F00AF870BD704770470068B0F11B
:1019D000804F01D1FFF724B97047704710B5044616
:1019E0000068416921F0C0014161206B08B1FEF738
:1019F00047FF606B08B1FEF743FF012084F8390010
:101A0000002010BD2DE9F84F07460020DFF8988030
:101A1000DFF898B00446A8F108094FF0805A00900A
:101A200004EB840108EBC105A868B84235D15C21FC
:101A30001FA0FEF70AFC28B15C211DA0FEF705FCE3
:101A4000461C00E01AA605F00FFD0146642332464D
:101A500020A001F029F8294624A001F025F8E98BFF
:101A60006A464E46D9F8000005F07AF938B1009878
:101A700028B1CBF800A0BFF34F8FBFF36F8FA98CB5
:101A80006A46706805F06CF938B1009828B1CBF857
:101A900000A0BFF34F8FBFF36F8F641CE4B2032C21
:101AA000BED3BDE8F88F00001400002004ED00E074
:101AB0002E2E5C6170706C69636174696F6E5C6D11
:101AC0006964776172655C756172742D636F7265AC
:101AD0002E6300005B2575206D735D202573206CDF
:101AE000696E653A25752009000000002573207293
:101AF000656365697665206F722073656E64206624
:101B000061696C0A0000000038B50446006801688D
:101B100011F0010FC16801F4807104D019B1E16BBB
:101B200041F00101E1630168C1F34002416901F044
:101B3000010122B119B1E26B42F00402E2630268D2
:101B4000C2F3800222B119B1E26B42F00202E263F9
:101B50000268C2F3C00222B119B1E16B41F0080181
:101B6000E1630168C068C1F3401100F0200019B1C1
:101B700010B1204600F01CFD21680868C968C0F358
:101B8000001001F0100118B111B1204600F043FF20
:101B900021680868C968C0F3C01001F0800118B15D
:101BA00011B1204600F0A8FE21680868CA68C0F399
:101BB000801002F04002012570B16AB1CA68204667
:101BC00022F04002CA6094F83910322911D080F80E
:101BD000395000BF00F0AEFAE06B002808D0206852
:101BE00001684068009084F839502046FFF70AFFEA
:101BF00038BD222180F83910ECE770B5040004D01C
:101C000094F83900002510B106E0012070BD84F879
:101C10003850204600F020F8022084F8390020686F
:101C2000C16821F40051C160204600F015FD206814
:101C3000016921F4904101612068416921F02A0184
:101C400041612068C16841F40051C160E563012031
:101C500084F83900002070BD2DE9F0470446006883
:101C6000DFF80C82022101220323DFF808A21027EB
:101C70000025802686B04FF0070C404549D17E48AC
:101C8000D0F8008048F48048C0F80080006800F474
:101C90008040059058028DE80F1069465046FEF7C7
:101CA000E9FEDFF8DC9175494846B046C0E9001509
:101CB000C0E90256C9F81050C9F81450C9F81850B4
:101CC000C9F81C50FEF748FE18B18B216DA000F03A
:101CD000E9FE6A48724EC4F834901438C9F82440BA
:101CE0003060C6E90175C6E903857561B5613046A6
:101CF000F561FEF731FE18B19B2162A000F0D2FE23
:101D000026630022052125207462FFF729F825208B
:101D100051E0DFF89081DFF86091404509F1040956
:101D20004ED1D9F8008048F40038C9F80080D9F8BD
:101D3000000000F4003005900C208DE80F1069467B
:101D40005046FEF797FEDFF860914C494846143143
:101D5000C0E90015C0E90256C9F81050C9F814507E
:101D6000C9F81850B046C9F81C50FEF7F5FD18B177
:101D7000C62144A000F096FE40484C4EC4F8349072
:101D80002830C9F824403060C6E90175C6E90385EA
:101D90007561B5613046F561FEF7DEFD18B1D621FB
:101DA00038A000F07FFE2663002205212620746201
:101DB000FEF7D6FF2620FEF7C7FF06B0BDE8F08786
:101DC000DFF8EC804045F8D1D9F8008048F480284D
:101DD000C9F80080D9F8000000F4802005904FF485
:101DE00040608DE80F1069463248FEF743FEDFF889
:101DF000C880224940462839C0E90015C0E902568A
:101E0000C8F81050C8F81450C8F81850C8F81C503A
:101E1000FEF7A2FD20B140F201111AA000F042FE2F
:101E2000C4F83480C8F82440DFF890801349404655
:101E30003C39C0E90256C8F81050C8F81450C8F828
:101E40001850C8E90017C8F81C50FEF785FD20B1EE
:101E500040F211110BA000F025FEC4F830800022E2
:101E600005212720C8F82440FEF77AFF2720A2E7A3
:101E70000038014000000240203802405860024013
:101E8000380600202E2E2F5372632F73746D333259
:101E90006C3178785F68616C5F6D73702E630000E1
:101EA0007C06002000440040C006002004070020FB
:101EB0000048004000040240480700208C07002032
:101EC00070B5044690F83900012801D0122832D1AB
:101ED00069B362B394F8380001282CD0012084F84B
:101EE0003800A162A2850025E56394F83900122824
:101EF0001FD0222084F83900636B10489862636B0E
:101F00000F48D862636B0F48186308461346666B28
:101F1000216802463046091DFEF750FD20684169E0
:101F200041F04001416184F83850002070BD01202B
:101F300070BD3220DEE7022070BD000039250008A8
:101F40006F2500080925000810B50446FFF7B8FF03
:101F5000002804D12168CA6842F01002CA6010BD8E
:101F6000704770472DE9F84307460020DFF860808E
:101F70000546009005EB850108EBC106B068B84244
:101F800020D1002409E000BF06EB8400026912B1F1
:101F9000F98DF0689047641CE4B2307FA042F3D81A
:101FA0000B48F18B08386A46006804F0D9FE48B146
:101FB000009838B107494FF080500860BFF34F8F49
:101FC000BFF36F8F6D1CEDB2032DD3D3BDE8F88343
:101FD0001400002004ED00E02DE9F047044690F8DD
:101FE000390099460D46012801D0222858D12DB339
:101FF00022B394F83800012852D0012684F83860C2
:102000000027E76394F8390022281AD05FF0120005
:1020100084F83900A284E2844FF48058E08C4B4667
:10202000401EE084A0684FF0000240454FF0800160
:10203000204613D100F093FC08BB04E00120BDE86A
:10204000F0873220E4E728882168C0F30800486060
:10205000206908B16D1C08E0AD1C06E000F07FFCB3
:1020600068B9216815F8010B4860E08C0028D5D1CB
:102070004B4600224021204600F071FC08B10320AD
:10208000DDE794F83900322806D084F8396000BFC3
:1020900084F838700020D2E7222084F83900F7E76E
:1020A0000220CCE770B5044690F83900012801D031
:1020B000222836D181B37AB394F83800012830D081
:1020C000012084F838002162A284E2840025E563BF
:1020D00094F83900222822D05FF0120084F83900E9
:1020E000236B11489862236B1048D862236B104809
:1020F000186326681346321D206BFEF75FFC2168CB
:102100006FF0400008602068416941F08001416142
:1021100084F83850002070BDFFE70120FBE7322033
:10212000DCE70220F7E7000079250008A725000872
:10213000092500082DE9F84305460020124EDFF876
:102140004C900446A6F108074FF08058CDF80000E7
:1021500004EB840006EBC0008168A9420DD1818C9C
:102160006A46786804F0FCFD38B1009828B1C9F8D7
:102170000080BFF34F8FBFF36F8F641CE4B2032C5A
:10218000E6D3BDE8F88300001400002004ED00E071
:102190007047FEE7274808B5016841F0807101608B
:1021A0000068254900F080700090244801604FF4D9
:1021B00080414160402181608021C1600021016136
:1021C00041618161C161FEF7C7FB00B1FEE70022FA
:1021D00005210C20FEF7C4FD0C20FEF7B5FD002202
:1021E00005210D20FEF7BCFD0D20FEF7ADFD002200
:1021F00005210E20FEF7B4FD0E20FEF7A5FD0022FE
:1022000005210F20FEF7ACFD0F20FEF79DFD0022FB
:1022100005211020FEF7A4FD1020FEF795FD0022F9
:1022200005211120FEF79CFDBDE808401120FEF7B6
:102230008BBD00001C38024008600240F4050020FD
:102240002DE9F0412F4886B0016841F0040101609A
:10225000016801F004010591016841F0200101606D
:10226000016801F020010591016841F00101016060
:10227000016801F001010591016841F0020101606E
:102280000068214F00F002004FF2E00505900022A7
:1022900029463846FEF7B9FCDFF87080BE150022EB
:1022A00031464046FEF7B1FC032000901848002458
:1022B000CDE9010469463846FEF7DCFB00950125AF
:1022C000CDE90154694638460394FEF7D3FB0096E6
:1022D000CDE90154694640460394FEF7CBFB00224A
:1022E00005210620FEF73CFD0620FEF72DFD00220D
:1022F00005210720FEF734FD0720FEF725FD06B077
:10230000BDE8F0811C380240000402400000024099
:1023100000003110FEE770470907090E002806DAB1
:1023200000F00F0000F1E02080F8141D704700F16C
:10233000E02080F80014704738B51C490023096874
:102340001B4A11F0F00F23D118491C310C68E5002D
:10235000184C03D5216801F4C0540EE00D6845F017
:1023600080550D600D6805F08055009524680D6856
:1023700004F4C05425F080550D60B4F5C05F07D15A
:10238000B0F5404F04D11068012340F00400106004
:10239000106820F0010018431060106800F0010080
:1023A000984201D0012038BD002038BD08380240D5
:1023B000003C0240007000404FF47A74204602F066
:1023C000F3FCFBE702F0FCBC1C4800B5016893B0CD
:1023D00021F4C05141F4006101600120009001909E
:1023E00002200990C0030A9080000B9000010C901D
:1023F0006846FEF765FE00B1FEE70F200D90032052
:102400000E9000200F901090119001210DA8FEF762
:10241000D9FC00B1FEE7FEF7DFFD4FF47A71B0FBA7
:10242000F1F0FFF701FA0420FFF7F2F900220F2183
:10243000501EFEF795FC13B000BD00000070004078
:102440000F48016841F4807101600D4908310A6844
:102450000C4B1A400A6002680B4B1A40026002687B
:1024600022F480220260086820F47D0008600020C9
:10247000091D086005494FF00060086070470000C2
:10248000003802400CC0FF88FEFFFEEE08ED00E0C1
:102490000148FFF706BA0000D007002070B50268B7
:1024A0004FF08046134B144CB04203D0984201D0F9
:1024B000A04205D122F070054A682A43B0420CD0F0
:1024C00098420AD0A04208D00C4B984205D00C4B41
:1024D000984202D00B4B984203D122F44073CA6851
:1024E0001A4302608A68C2620968816201214161FF
:1024F00070BD0000000400400008004000080140DA
:10250000000C01400010014010B5406A0021C18557
:10251000C184012180F83910C16B41F01001C16301
:102520000168CA6812F0100F03D0CA6822F01002C6
:10253000CA60FFF767FA10BD10B50146406A096826
:10254000096889060ED40021C18501684A6922F014
:1025500040024A6190F83910322906D05FF001013B
:1025600080F83910FFF7FCFC10BD1221F8E710B518
:10257000406AFFF7F6FC10BD10B50146406A0968D5
:10258000096889060CD40021C18401684A6922F0D7
:1025900080024A610068C16841F04001C16010BD1D
:1025A000FFF7C8FD10BD10B5406AFFF7F1FD10BD83
:1025B00010B590F83910222903D0322901D0022019
:1025C00010BD8168B1F5805F11D0016900290168F3
:1025D0001FD0496801F07F03816A4A1C82620B7038
:1025E000C18D491E0904090CC18518D030E002696B
:1025F000816A002A0268526805D0D2B20A80816AD4
:10260000491C8162ECE7C2F308020A80816A891CD6
:10261000F7E74A68816A4B1C83620A70E0E7016849
:10262000CA6822F02002CA6090F83910322911D00D
:102630000168CA6822F48072CA6001684A6922F09F
:1026400001024A615FF0010180F83910FFF788FC50
:10265000002010BD1221F7E72DE9F0410446006883
:102660000169E26821F44051114301612169A068C8
:10267000E26908436169114308432168CA6849F265
:102680000C639A430243CA6020684169A26921F43D
:10269000407111434161E1696425B1F5004F9548EE
:1026A00021684FF032083DD081427AD1FEF7B2FC6A
:1026B00000EBC00101EB001061688900B0FBF1F68E
:1026C000FEF7A8FC00EBC00101EB00106168890077
:1026D000B0FBF1F0B0FBF5F06FF01801484306EBEA
:1026E000800108EB0110B0FBF5F000F0F006FEF7FA
:1026F00091FC00EBC00101EB001061688900B0FBA8
:10270000F1F0B0FBF5F006EB0016FEF783FC00EBF2
:10271000C00101EB001061688900B0FBF1F7FEF722
:1027200079FCD0E081423DD1FEF774FC00EBC001A2
:1027300001EB001061684900B0FBF1F0B0FBF5F06F
:102740000601FEF767FC00EBC00101EB00106168B9
:102750004900B0FBF1F7FEF75DFC00EBC00101EBB7
:10276000001061684900B0FBF1F0B0FBF5F06FF0CC
:102770001801484307EB800108EBC100B0FBF5F0FE
:1027800000F0F80006EB4006FEF744FC00EBC00149
:1027900001EB001061684900B0FBF1F7FEF73AFC6D
:1027A0003CE055E0FEF71EFC00EBC00101EB001021
:1027B00061684900B0FBF1F0B0FBF5F00601FEF7EF
:1027C00011FC00EBC00101EB001061684900B0FB97
:1027D000F1F7FEF707FC00EBC00101EB00106168A8
:1027E0004900B0FBF1F0B0FBF5F06FF01801484381
:1027F00007EB800108EBC100B0FBF5F000F0F8003A
:1028000006EB4006FEF7EEFB00EBC00101EB00100B
:1028100061684900B0FBF1F7FEF7E4FB00EBC00193
:1028200001EB001061684900B0FBF1F0B0FBF5F07E
:102830006FF01801484307EB800108EBC100B0FBC3
:10284000F5F000F00700216830448860BDE8F081B1
:10285000FEF7C8FB00EBC00101EB001061688900C6
:10286000B0FBF1F6FEF7BEFB00EBC00101EB001080
:1028700061688900B0FBF1F0B0FBF5F06FF0180172
:10288000484306EB800108EB0110B0FBF5F000F0C7
:10289000F006FEF7A7FB00EBC00101EB001061683A
:1028A0008900B0FBF1F0B0FBF5F006EB0016FEF787
:1028B00099FB00EBC00101EB001061688900B0FBDF
:1028C000F1F7FEF78FFB00EBC00101EB0010616830
:1028D0008900B0FBF1F0B0FBF5F06FF01801484350
:1028E00007EB800108EB0110B0FBF5F000F00F00E2
:1028F000A9E700000038014090F83910122903D0F0
:10290000322901D0022070478168B1F5805F016AE9
:102910000BD04A1C0262026809785160C18C491EC2
:102920000904090CC1840ED017E009880268C1F3BC
:102930000801516001690029016A02D0491C016245
:10294000ECE7891CFBE70168CA6822F08002CA60D4
:102950000068C16841F04001C160002070472DE966
:10296000F0471D4690460E460446FEF753F90746CB
:102970005FEA08004FF000094FF0010808D030E08E
:10298000681C05D095B1FEF745F9C01BA8420DD8CB
:102990002068006836EA0000F2D127E0681C20D0E9
:1029A00025B1FEF737F9C01BA8421AD92068C168C3
:1029B00021F08001C1602068C16821F02001C16060
:1029C0002068C16821F48071C1602068416921F0EC
:1029D0000101416184F8398084F838900320BDE812
:1029E000F0872068006836EA0000D7D00020F6E7BC
:1029F0000148FFF789B80000340500200148FFF7BF
:102A000083B80000740500200148FFF77DB800007E
:102A1000B4050020FEE738B590F839100446006888
:102A200022290DD032290BD00168C943C90637D4F9
:102A3000016841680091C16821F01001C16020E087
:102A40000168C943C90628D4016841680091C1687A
:102A500021F01001C1602046FEF7C0FF606B0068E6
:102A6000006880060DD40020E0852068416921F0CF
:102A70004001416194F8390032280FD0012084F8D8
:102A80003900606B00684168A08D884200D0401A10
:102A9000E0852046FFF766FA002038BD1220EEE7F9
:102AA000022038BDFEE700000FB4054B10B503A9A6
:102AB000044A029800F0EEF810BC5DF814FB000028
:102AC000F13E00089C0100200FB4084B10B504A98A
:102AD00002AA039800F0DEF8044602A9002000F0E4
:102AE00070FC204610BC5DF814FB0000C3330008E6
:102AF00002E008C8121F08C1002AFAD170477047C7
:102B0000002001E001C1121F002AFBD17047000024
:102B10002DE9FF5F82B00021DDE90430020DDDF810
:102B200040B0034318D044F61050A2F2FF324243A3
:102B30001514119801281FD0A5EB0B00401C5FEA6B
:102B4000000A4FF000064E4FDFF83891B04650466D
:102B500015D5CAF1000413E0119801244AA30128F5
:102B600001D16FEA0B010298119AC0E90031C0E966
:102B7000024206B0BDE8F09FCBF10000DFE704465B
:102B80000021404A491842EB0450CDE9001012E000
:102B9000E00707D032463B4640464946FDF753FC26
:102BA0008046894632463B4610461946FDF74BFCA7
:102BB00006460F466410002CEAD1DDE90401DDE988
:102BC0000023BAF1000F06DAFDF73DFC42464B4602
:102BD000FDF739FC05E0FDF7A8FC42464B46FDF742
:102BE000A4FC04460E460022284BFDF725FD03D821
:102BF0004FF0FF30014607E00022254B20463146CA
:102C0000FDF77AFBFDF700FD102409E0002C0ADB3C
:102C10000A220023FDF73FFB039B30321A55641E46
:102C200050EA0102F2D1641C039AC4F11103144466
:102C3000119A012A03D0012208430DD10AE008436A
:102C400004D000204FF0110B119072E7A3EB0B059D
:102C50006D1E0DE05B4504DD4FF0000205F101053E
:102C600004E003DA4FF00002A5F10105002AECD0E0
:102C700002981199C0E90231C0E9004579E70000E6
:102C8000000014400000F03F300000000000F0435E
:102C90000000E03F2DE9FF4F95B09B468946064670
:102CA00000250FE2252877D100242746F84A012184
:102CB000059400E0044316F8013F203B01FA03F0BD
:102CC0001042F7D130782A2811D06FF02F033078D6
:102CD000A0F13002092A16D8059A44F0020402EB4A
:102CE000820203EB42021044761C0590EFE759F88C
:102CF000042B0592002A03DA504244F40054059054
:102D000044F00204761C30782E2816D116F8010FF4
:102D100044F004042A280DD06FF02F023078A0F17F
:102D20003003092B09D807EB870302EB4303C718CD
:102D3000761CF3E759F8047B761C30786C280FD0AA
:102D400006DC4C2817D068280DD06A2814D104E07E
:102D5000742810D07A280FD10DE044F400140AE052
:102D600044F4801401E044F440147278824202D1A9
:102D700004F58014761C761C307866280BD013DCA2
:102D8000582877D009DC002875D04528F6D0462889
:102D9000F4D047281AD19DE118E0632835D0642883
:102DA00079D0652812D195E1702873D008DC6728A6
:102DB000F1D069286FD06E280DD06F2806D1B5E00C
:102DC00073282CD0752875D0782874D05A46179956
:102DD00090476D1C75E1C4F30250022809D0032806
:102DE0000DD0D9F8001004280DD00D6009F10409A8
:102DF00067E1D9F80010EA17C1E90052F6E7D9F8FF
:102E000000100D80F2E70D70F0E719F8041B8DF843
:102E1000001000208DF80100EA46012003E059F877
:102E200004AB4FF0FF3061074FF0000102D40DE01A
:102E300008F101018846B9420FDA8045F8DB1AF83B
:102E400008100029F4D108E008F101018846814208
:102E5000FADB1AF808100029F6D105985B46A0EBBA
:102E6000080721463846179A00F094FA284400EBE8
:102E7000080507E04DE029E10DE01AF8010B5A467C
:102E800017999047B8F10108F7D25B4621463846BA
:102E9000179A13E142E00A220092C4F302524FF063
:102EA000000A022A08D059F804CB032A4FEAEC7131
:102EB0000AD00DE029E02AE009F1070121F007021C
:102EC000F2E802C1914609E00FFA8CFC4FEAEC717E
:102ED000042A03D14FFA8CFC4FEAEC71002907DA7F
:102EE0000A460021DCF1000C61EB02012D2202E018
:102EF000220504D52B228DF80420012203E0E207ED
:102F000001D02022F7E7904659E00A2102E0102282
:102F10000DE010214FF0000A00910BE010224FF05D
:102F2000000A44F004040827009203E008224FF04E
:102F3000000A0092C4F30252022A05D059F804CBC9
:102F40000021032A08D009E009F1070121F0070256
:102F5000F2E802C1914605E01FFA8CFC042A01D177
:102F60000CF0FF0C4FF00008220728D5702806D07F
:102F7000009B83F0100353EA0A0305D00EE04022C1
:102F80008DF80420012208E05CEA010206D030221C
:102F90008DF804208DF8050002229046009B83F0F6
:102FA000080353EA0A030AD15CEA010201D162076D
:102FB00005D530228DF804204FF001087F1E5828D7
:102FC00004D034A003900EA802900DE036A0F9E7DB
:102FD00053466046009AFDF75EF984460398825C8A
:102FE0000298401E029002705CEA0100F0D1029843
:102FF00006A9081A00F1200A600702D524F48034DB
:1030000000E00127574502DDA7EB0A0000E00020A1
:1030100000EB0A01009005984144401A0590E00336
:1030200006D45B462146179A059800F0B3F905448B
:10303000002706E001A85A46C05D179990476D1C0D
:103040007F1C4745F6DBE0030CD55B462146179A0B
:10305000059800F09FF9054404E030205A4617997E
:1030600090476D1C0099481E00900029F5DC08E08F
:10307000029802995A460078491C02911799904784
:103080006D1CBAF10001AAF1010AF1DC65E1000052
:10309000092801003031323334353637383961622E
:1030A00063646566000000003031323334353637F2
:1030B00038394142434445460000000000F058F9C9
:1030C0000544761C307800287FF4ECAD19B0284612
:1030D000BDE8F08F620700D4062709F1070222F04D
:1030E000070CFCE80223E14603F000485FEA080C05
:1030F00002D00FF2702C0DE05FEA045C02D50FF2F3
:10310000682C07E05FEAC47C02D00FF2602C01E07B
:10311000AFF2700C4FF0FF3823F00043CDF850C0F1
:1031200065280CD006DC452809D046281DD0472844
:103130003DD13DE0662818D067287ED138E00021D7
:10314000112F01DB112000E0781CCDE9000106A958
:103150000EA8FFF7DDFCDDE90F010E9A03910021B7
:10316000009207F1010A04914DE04FF000400097F2
:10317000CDE9011006A90EA8FFF7CAFCDDE90F0290
:1031800003920E9B11990022DDF80CA0009304928B
:1031900011B9791C00EB010AB7EB0A0004D4C0F1A5
:1031A000FF3007F1010A0490AAEB0700019044E008
:1031B000012F00DA01270021112F01DD112000E08D
:1031C0003846CDE9000106A90EA8FFF7A1FCDDE90C
:1031D0000F010E9A0391002104910092BA46210733
:1031E0000CD40399514500DA8A46BAF1010F05DD86
:1031F000009AAAF10101515C302908D0B84202DAE4
:1032000010F1040F06DA0121CDE9011015E0AAF151
:103210000101E9E7002805DC049901440491AAEBC7
:10322000000102E0411C514500DD8A460499401A24
:10323000401C01904FF000400290200704D40198F8
:10324000504501DBCDF8048000208DF84F00029836
:103250000DF14F07B0F1004F25D02B200E900298B2
:103260004FF0020800280CDA404202902D200E9008
:1032700007E00A210298FCF7F8FF3031029007F8C6
:10328000011DB8F10001A8F10108F2DC0298002844
:10329000EFD1791E0E980870307800F0200040F0D1
:1032A000450007F8020D12A8C01B00F1070814988A
:1032B000007800B1012000EB0A01019801EBE071F8
:1032C00005984144401A401E0590E00306D45B4631
:1032D0002146179A059800F05DF805441498007887
:1032E00018B15A46179990476D1CE00324D55B46E8
:1032F0002146179A059800F04DF805441CE0049803
:10330000002807DBDDE90301884203DD0098405C0B
:10331000179901E0179930205A469047049805F113
:103320000105401C04900198401E019004D12E20FC
:103330005A46179990476D1CBAF10001AAF1010A8B
:10334000DDDC05E017F8010B5A46179990476D1C14
:10335000B8F10001A8F10108F4DC5B462146179A98
:103360000598ABE62D0000002B00000020000000B7
:103370002DE9F041044600251E461746880404D472
:1033800005E039462020B0476D1C641EF9D528465B
:10339000BDE8F0812DE9F041044600251E46904627
:1033A000C80301D5302700E02027880404D505E0B4
:1033B00041463846B0476D1C641EF9D52846BDE825
:1033C000F0810A68531C0B6010707047704710B58D
:1033D00000F01CF9BDE8104002F088BB6FF00F034D
:1033E00050B106494A78012A06D0521CD2B24A701E
:1033F00041F8220000207047184670478C000020DA
:10340000034603480A461946007802F0C3BE00008E
:103410008C00002070B501F079F9394A062139A0F5
:1034200002F02AFE0400364E4FF05C0137A009D0AE
:10343000FCF70BFF00281CD05C2134A0FCF705FF33
:10344000451C17E0FCF701FF28B15C212FA0FCF719
:10345000FCFE401C00E02DA0044603F0FFFF0146E7
:103460005323224635A0FFF71FFB327825A139A050
:103470000BE026A503F0F2FF014655232A462FA0B4
:10348000FFF712FB22461FA139A0FFF70DFB307892
:10349000434902F04DFD05004FF05C011BA017D021
:1034A000FCF7D3FE28B15C2118A0FCF7CEFE441C2B
:1034B00000E016A403F0D2FF0146592322461FA0C4
:1034C000FFF7F2FA2946BDE8704036A0FFF7ECBAE4
:1034D000FCF7BBFE28B15C210CA0FCF7B6FE441C37
:1034E00000E00AA403F0BAFF01465B23224613A0C2
:1034F000FFF7DAFABDE8704031A0FFF7D5BA000057
:103500008C00002075617274330000002E2E5C6107
:1035100070706C69636174696F6E5C6D6F64756CFB
:10352000655C626C655F626C7565746F6F74685F13
:103530006D6F64756C652E63000000005B2575205F
:103540006D735D202573206C696E653A25752009C1
:1035500000000000626C6520676574202573206898
:10356000616E646C652069732025640A00000000A8
:10357000626C6520206765742025732068616E6425
:103580006C65206661696C2025642C6578697420FF
:10359000636F6E736F6C655F7461736B200A0000FC
:1035A000DD350008626C6520756172742072656794
:1035B0006973746572206661696C2025640A000075
:1035C000626C6520756172742072656769737465D9
:1035D000722073756363657373200A002DE9F041EF
:1035E0000E4607460024084D08E000BF05EB8400A6
:1035F0003146426838469047641CE4B26878A0427D
:10360000F4D8BDE8F08100008C00002010B502F075
:10361000EBFAFFF7FFFEFFF7D9FE01F0C3FABDE8B2
:10362000104000F0E7BE0000F8B500268DF80060FD
:1036300034465C2139A0FCF708FE28B15C2137A094
:10364000FCF703FE401C00E034A0054603F006FF33
:1036500001467E232A4638A0FFF726FA3CA0FFF752
:1036600023FA684600F050FC9DF80000032852D071
:103670005C212AA0FCF7E9FD28B15C2127A0FCF71A
:10368000E4FD401C00E025A0044603F0E7FE0146EF
:103690008723224628A0FFF707FA03229DF800108F
:1036A0002EA0FFF701FA334D012085F8716002F07A
:1036B000BFF903219DF8000002F004F9044602203E
:1036C00002F0B6F9012085F871009CB1684600F05F
:1036D0001BFC95F870109DF8000002F0F3F85C21D7
:1036E0000EA0FCF7B2FD48B15C210CA0FCF7ADFDCB
:1036F000451C04E0032085F87000F0E707A503F0FF
:10370000ADFE01469E232A460BA0FFF7CDF92146C8
:1037100019A0FFF7C9F92046F8BD00002E2E5C6104
:1037200070706C69636174696F6E5C6D6F746F72D9
:103730005F6C6F636B2E63005B2575206D735D207E
:103740002573206C696E653A25752009000000001C
:10375000636C6F7365206C6F636B0A007365742014
:1037600073746174757320256420746F2025640A56
:103770000000000094000020636C6F7365206C6F84
:10378000636B2072657475726E2025640A000000F8
:103790002DE9F047314E81469846307817460D4660
:1037A000012808D02E4C94F8BC010A2806D96FF0E5
:1037B0000900BDE8F0876FF00E00FAE74846FCF715
:1037C00025FDA84246D1052D44D84046FCF71EFDF4
:1037D0001D283FD8EFB30120307094F8BC01401C85
:1037E00084F8BC014846FCF711FD024694F8BC0180
:1037F00000EB400101EBC00004EB80004946283893
:10380000FCF7E0FC4046FCF701FD024694F8BC01E1
:1038100000EB400101EBC00004EB800041461C3886
:10382000FCF7D0FC94F8BC0100EB400101EBC000B8
:1038300004EB800000F8225C94F8BC0100EB40012E
:1038400001EBC00004EB800040F8207C00203070C9
:10385000AFE7FFE76FF00C00ABE7000004000020CB
:10386000A001002038B500220092642900D3642111
:10387000CAB20E4C014604F2BD1084F82122FCF7B6
:10388000A1FC6A460121D4F8240203F069FA002859
:103890000AD00098002807D005494FF080500860F2
:1038A000BFF34F8FBFF36F8F38BD0000A001002022
:1038B00004ED00E030B585B014223D496846FCF7C0
:1038C00081FC0021684601F085FA3A4C00284FF04F
:1038D0005C01206038A009D0FCF7B7FC00281AD0A2
:1038E0005C2135A0FCF7B1FC401C15E0FCF7ADFCF9
:1038F00028B15C2130A0FCF7A8FC401C00E02EA001
:10390000054603F0ABFD014699232A4631A0FFF797
:10391000CBF836A00AE028A0054603F09FFD01463B
:103920009B232A462BA0FFF7BFF839A0FFF7BCF86E
:1039300003F0C2F9C4F8240200284FF05C011EA075
:1039400009D0FCF782FC00281BD05C211AA0FCF7F0
:103950007CFC401C16E0FCF778FC28B15C2116A02A
:10396000FCF773FC441C00E013A403F077FD014650
:10397000A023224617A0FFF797F82FA0FFF794F88F
:1039800011E00DA0054603F069FD0146A3232A4678
:1039900010A0FFF789F834A0FFF786F80121D4F8CA
:1039A000240203F069F901F01FFF05B030BD0000EB
:1039B00084780008A00100202E2E5C6170706C6974
:1039C000636174696F6E5C636F6E736F6C652E6399
:1039D000000000005B2575206D735D202573206C51
:1039E000696E653A2575200900000000636F6E73EB
:1039F0006F6C655F7461736B5F66756E6374696F1E
:103A00006E20637265617465206661696C0A0000EE
:103A1000636F6E736F6C655F7461736B5F66756EF9
:103A20006374696F6E20637265617465207375637A
:103A3000636573730A000000636F6E736F6C652EAD
:103A4000636F6E736F6C655F6576656E745F6861DA
:103A50006E646C652067726F757020637265617447
:103A600065206661696C0A00636F6E736F6C652E0A
:103A7000636F6E736F6C655F6576656E745F6861AA
:103A80006E646C6520637265617465207375636331
:103A90006573730A000000001CB500208DF8040057
:103AA00001AA062156A002F0E7FA0600564C4FF094
:103AB0005C0156A009D0FCF7C8FB00281FD05C2190
:103AC00052A0FCF7C2FB451C1AE0FCF7BEFB28B174
:103AD0005C214EA0FCF7B9FB401C00E04BA0054662
:103AE00003F0BCFC01466F232A464FA0FEF7DCFF23
:103AF0009DF8042042A152A0FEF7D6FF13E043A593
:103B000003F0ACFC014671232A4647A0FEF7CCFF28
:103B100032463BA152A0FEF7C7FF206802F092FD9B
:103B2000002002F08FFD5B499DF8040002F000FACE
:103B300006004FF05C0135A017D0FCF786FB28B1DA
:103B40005C2132A0FCF781FB401C00E02FA0054661
:103B500003F084FC014677232A4633A0FEF7A4FF36
:103B600031464DA0FEF7A0FF14E0FCF76EFB28B134
:103B70005C2126A0FCF769FB451C00E023A503F0AF
:103B80006DFC014679232A4627A0FEF78DFF4AA047
:103B9000FEF78AFF504E00BFD4F8240200282BD035
:103BA000012200231146009603F0E2F8C0070BD073
:103BB0004A4894F82112054601F024F994F821129C
:103BC0002846FCF718FBE7E75C2110A0FCF73DFB5B
:103BD00028B15C210DA0FCF738FB451C00E00BA5CB
:103BE00003F03CFC014686232A460FA0FEF75CFF4B
:103BF0003BA0FEF759FFCFE7206802F0A1FFCBE71B
:103C00007561727432000000A00100202E2E5C61EC
:103C100070706C69636174696F6E5C636F6E736FF3
:103C20006C652E63000000005B2575206D735D20C0
:103C30002573206C696E653A257520090000000027
:103C4000636F6E736F6C65206765742025732068E1
:103C5000616E646C652069732025640A00000000B1
:103C6000636F6E736F6C65206765742025732068C1
:103C7000616E646C65206661696C2025642C6578D2
:103C8000697420636F6E736F6C655F7461736B2012
:103C90000A00000065380008636F6E736F6C652062
:103CA000636F7265207265676973746572206661FF
:103CB000696C2025640A0000636F6E736F6C652069
:103CC000636F7265207265676973746572207375BE
:103CD0006363657373200A00368941005D03002029
:103CE000636F6E736F6C65207265636569766520BE
:103CF000756E6163636570746564206576656E7466
:103D00000A00000010B586B014222E496846FCF760
:103D100059FA0021684601F05DF82B490028086037
:103D20004FF05C0129A009D0FCF78FFA00281AD0C7
:103D30005C2126A0FCF789FA401C15E0FCF785FA07
:103D400028B15C2121A0FCF780FA401C00E01FA0F4
:103D5000044603F083FB01462D23224622A0FEF7F2
:103D6000A3FE27A00AE019A0044603F077FB014652
:103D70002F2322461CA0FEF797FE2AA0FEF794FEF2
:103D800031A3384A032138A0FFF702FD002817D0DD
:103D90005C210EA0FCF759FA28B15C210BA0FCF7BE
:103DA00054FA401C00E009A0044603F057FB01460A
:103DB000332322460CA0FEF777FE2CA0FEF774FEFC
:103DC00006B010BD98780008080000202E2E5C6117
:103DD00070706C69636174696F6E5C7461736B5F42
:103DE00073746174652E63005B2575206D735D20AF
:103DF0002573206C696E653A257520090000000066
:103E00007461736B5F73746174655F66756E637400
:103E1000696F6E20637265617465206661696C0A02
:103E2000000000007461736B5F73746174655F669A
:103E3000756E6374696F6E2063726561746520735B
:103E40007563636573730A006370752075736167CA
:103E5000652C737461636B2C206C656674207374BD
:103E600061636B00DD5B0008435055006370752093
:103E7000636F6D6D6F6E64207265676973746572D0
:103E8000206661696C0A000070B5040005D0164E0A
:103E90003068844209D1002070BD502080F3118821
:103EA000BFF34F8FBFF36F8FFEE702F0D3FA656960
:103EB00002F0F0FAF06B854202D0306C854201D1FD
:103EC000022070BD0948854204D1A06A0028F7D1BC
:103ED000032070BD05481438854202D00DB1012081
:103EE00070BD042070BD00004C0100205C25002046
:103EF00013B5FF23012269460248FEF76DF80098CA
:103F00001CBD00007405002070B5074E0446022158
:103F10003046FCF775FE054601213046FCF770FE81
:103F200005EB4000207070BD000402402DE9F04117
:103F3000124E0024351F1CE05C2111A0FCF785F90E
:103F400028B15C210EA0FCF780F9401C00E00CA019
:103F5000074603F089FA014622233A4615A0FEF7E8
:103F6000A3FD1AA0FEF7A0FD56F824008047641CAC
:103F7000E4B228788442DFD3BDE8F0810C01002050
:103F80002E2E5C6170706C69636174696F6E5C6D1C
:103F90006F64756C655C696E6672617265645F649E
:103FA0006574656374696F6E5F6D6F64756C652EA3
:103FB000630000005B2575206D735D202573206C08
:103FC000696E653A257520090000000063616C6C1C
:103FD0002020696E6672617265645F6465746563F2
:103FE00074696F6E0A00000070B55C211FA0FCF7B9
:103FF0002CF928B15C211DA0FCF727F9441C00E036
:104000001AA403F02BFA0146212322461EA0FEF734
:104010004BFD23A0FEF748FD0024284D21E05C2144
:1040200012A0FCF712F928B15C2110A0FCF70DF9E1
:10403000461C00E00DA603F011FA01462323324688
:1040400011A0FEF731FD04EB440000EBC40005EBCA
:10405000800101F110021AA0091DFEF725FD641C64
:10406000E4B295F8BC01A042D9D870BD2E2E5C6197
:1040700070706C69636174696F6E5C636F6E736F8F
:104080006C652E63000000005B2575206D735D205C
:104090002573206C696E653A2575200900000000C3
:1040A000636F6D6D6F6E643A2020202020696E73FF
:1040B0007472756374696F6E733A0A00A001002010
:1040C00025732020202020202020202025730A0076
:1040D00038B5264C0020009094F8710068B1012892
:1040E00022D15C2122A0FCF7B0F800281DD05C2171
:1040F0001FA0FCF7AAF8401C18E05C211CA0FCF7EC
:10410000A4F828B15C211AA0FCF79FF8441C00E039
:1041100017A403F0A9F90146412322461BA0FEF78C
:10412000C3FC20A0FEF7C0FC38BD11A0054603F07B
:104130009BF9014643232A4614A0FEF7B5FC21A0B3
:10414000FEF7B2FC6A460221E06E02F009FE00288A
:10415000EAD000980028E7D022494FF0805008604C
:10416000BFF34F8FBFF36F8F38BD00009400002066
:104170002E2E5C6170706C69636174696F6E5C6D2A
:104180006F746F725F6C6F636B2E63005B257520BD
:104190006D735D202573206C696E653A2575200965
:1041A00000000000696E6672617265645F64657428
:1041B000656374696F6E5F63616C6C6261636B40B1
:1041C000310A0000696E6672617265645F646574CD
:1041D000656374696F6E5F63616C6C6261636B4091
:1041E000320A000004ED00E038B500208DF8000030
:1041F0005C2150A0FCF729F828B15C214DA0FCF708
:1042000024F8401C00E04BA0044603F027F90146C7
:10421000AC2322464EA0FEF747FC53A0FEF744FC19
:104220006846FFF771FE574C9DF8001094F8700037
:10423000884218D15C213FA0FCF707F828B15C2127
:104240003CA0FCF702F8401C00E03AA0044603F052
:1042500005F90146B02322463DA0FEF725FC9DF856
:10426000001049A063E0012001F0E2FB5C2131A0D5
:10427000FBF7EBFF28B15C212EA0FBF7E6FF401C0B
:1042800000E02CA0054603F0E9F80146B5232A46D4
:104290002FA0FEF709FC94F870209DF8001041A0B3
:1042A000FEF702FC94F870109DF8000001F00AFB84
:1042B0000546022001F0BCFB002D3AD06846FFF70E
:1042C00023FE5C211BA0FBF7C0FF28B15C2119A0D5
:1042D000FBF7BBFF401C00E016A0054603F0BEF84C
:1042E0000146BF232A461AA0FEF7DEFB94F87010A1
:1042F00033A0FEF7D9FB9DF8000084F870005C2124
:104300000CA0FBF7A2FF28B15C210AA0FBF79DFFE0
:10431000401C00E007A0054603F0A0F80146C323B7
:104320002A460BA0FEF7C0FB94F8701029A0FEF7F8
:10433000BBFB38BD2E2E5C6170706C696361746963
:104340006F6E5C6D6F746F725F6C6F636B2E63006A
:104350005B2575206D735D202573206C696E653A51
:104360002575200900000000696E6672617265643F
:104370005F646574656374696F6E5F6465616C0A20
:104380000000000094000020646F206E6F74206EA7
:10439000656564207365742073746174757320257A
:1043A000640A000073657420737461747573206609
:1043B000726F6D20256420746F2025640A00000050
:1043C000736574207374617475732025642066614D
:1043D000696C2C00736F207365742063757272654D
:1043E0006E74207374617475732069732025640A78
:1043F0000000000010B5012220211148FCF705FC47
:10440000104801F0DFF9002818D05C210EA0FBF75E
:104410001CFF28B15C210CA0FBF717FF441C00E037
:1044200009A403F01BF801462F23224613A0FEF730
:104430003BFBBDE8104017A0FEF736BB10BD0000E7
:10444000000402402D3F00082E2E5C6170706C69E4
:10445000636174696F6E5C6D6F64756C655C696EC9
:104460006672617265645F646574656374696F6EBA
:104470005F6D6F64756C652E630000005B257520B1
:104480006D735D202573206C696E653A2575200972
:104490000000000072656769737465725F67706918
:1044A0006F5F657874695F63616C6C6261636B20D8
:1044B0006661696C0A00000008B50020124D8DF895
:1044C0000000642002F098F86846FFF71DFD5C21AB
:1044D0000EA0FBF7BAFE28B15C210CA0FBF7B5FEDD
:1044E000441C00E009A402F0B9FF01461323224650
:1044F0000CA0FEF7D9FA95F870209DF800100FA0D7
:10450000FEF7D2FADDE70000940000202E2E5C6159
:1045100070706C69636174696F6E5C6C6F636B2E35
:10452000630000005B2575206D735D202573206C92
:10453000696E653A25752009000000006C6F636B99
:10454000207374617475732069732025782C6375EA
:104550007272656E74207374617475732069732050
:1045600025640A0010B586B014221D496846FBF781
:1045700029FE0021684600F02DFC00284FF05C0168
:1045800018A009D0FBF761FE002819D05C2115A006
:10459000FBF75BFE401C14E0FBF757FE28B15C21E3
:1045A00010A0FBF752FE441C00E00EA402F056FFE0
:1045B00001462123224611A0FEF776FA15A00AE053
:1045C00008A0044602F04AFF0146232322460BA01E
:1045D000FEF76AFA16A0FEF767FA06B010BD0000F3
:1045E000D47800082E2E5C6170706C696361746908
:1045F0006F6E5C6C6F636B2E630000005B25752033
:104600006D735D202573206C696E653A25752009F0
:10461000000000006C6F636B5F66756E6374696F9A
:104620006E20637265617465206661696C0A0000C2
:104630006C6F636B5F66756E6374696F6E20637217
:104640006561746520737563636573730A000000A8
:1046500086B0FCF7EDFAFDF7B7FEFDF7F1FDFDF7CB
:1046600099FD224820494FF4E13600240160C0E959
:1046700001640C25C460C0E904458461C461FDF790
:10468000BCFA00B1FEE71948194940300160C0E9A1
:104690000164C460C0E904458461C461FDF7ADFAFA
:1046A00000B1FEE711481349803001604FF4165104
:1046B000C0E90114C460C0E904458461C461FDF728
:1046C0009CFA00B1FEE714220B496846FBF77AFD1D
:1046D0000021684600F07EFB08490860FEF777FE7F
:1046E00000F069FBFEE700000038014034050020BF
:1046F0000044004000480040E87800081C01002009
:1047000001460020842900D0C81C704710B50A4C0F
:1047100000224FF480512046FCF777FA00224FF434
:1047200000512046FCF771FA20460122BDE81040F6
:104730009103FCF76ABA00000004024038B50C4649
:1047400000210091012803D12078C8B101281AD096
:10475000F02021788DF800108DF8010002216846C4
:10476000FEF74EFE10F0FF0F1DD05C210EA0FBF7F0
:104770006CFD58B15C210CA0FBF767FD401C06E006
:1047800000F060FAE5E7FEF74FFFE2E706A0044617
:1047900002F064FE0146EE2322460AA0FEF784F9E9
:1047A0000EA0FEF781F938BD2E2E5C6170706C6929
:1047B000636174696F6E5C6D6F746F725F6C6F6351
:1047C0006B2E63005B2575206D735D202573206C57
:1047D000696E653A25752009000000006D6F746FE1
:1047E000725F6C6F636B2073656E642064617461CB
:1047F000206661696C0A000070B586B014226C49AD
:104800006846FBF7DFFC0021684600F0E3FA694CDC
:1048100000284FF05C01206067A009D0FBF715FD70
:1048200000281BD05C2164A0FBF70FFD401C16E0A4
:10483000FBF70BFD28B15C215FA0FBF706FD401CD8
:1048400000E05DA0054602F009FE01464FF48973C1
:104850002A4660A0FEF728F964A00BE056A00546A2
:1048600002F0FCFD01464FF48A732A4659A0FEF778
:104870001BF968A0FEF718F902F01EFAE06600289E
:104880004FF05C014CA009D0FBF7DFFC00281DD0E5
:104890005C2149A0FBF7D9FC451C18E0FBF7D5FCCF
:1048A00028B15C2144A0FBF7D0FC401C00E042A0F2
:1048B000054602F0D3FD014640F219132A4645A0F1
:1048C000FEF7F2F85EA0FEF7EFF814E03AA502F06A
:1048D000C5FD01464FF48E732A463EA0FEF7E4F86C
:1048E00067A0FEF7E1F80121E06E02F0C5F90221B0
:1048F000E06E02F0C1F97248FEF770FD050018D0B5
:104900005C212DA0FBF7A1FC28B15C212AA0FBF7BC
:104910009CFC461C00E028A602F0A0FD014640F2E7
:10492000231332462BA0FEF7BFF8294665A0FEF7F9
:10493000BBF8724800F0B6FF050018D05C211EA03D
:10494000FBF783FC28B15C211BA0FBF77EFC461C17
:1049500000E019A602F082FD014640F2271332461C
:104960001CA0FEF7A1F829466548FEF79DF81148FE
:104970007030FFF7C9FA5C210FA0FBF766FC28B185
:104980005C210DA0FBF761FC401C00E00AA005467D
:1049900002F064FD01464FF496732A460DA0FEF71F
:1049A00083F894F8701057A0FEF77EF806B070BD3B
:1049B000C0780008940000202E2E5C6170706C6935
:1049C000636174696F6E5C6D6F746F725F6C6F633F
:1049D0006B2E63005B2575206D735D202573206C45
:1049E000696E653A25752009000000006D6F746FCF
:1049F000725F6C6F636B5F7461736B5F66756E6320
:104A000074696F6E20637265617465206661696C9C
:104A10000A0000006D6F746F725F6C6F636B5F7480
:104A200061736B5F66756E6374696F6E2063726528
:104A300061746520737563636573730A0000000019
:104A40006D6F746F725F6C6F636B5F7461736B2EED
:104A50006D6F746F725F6C6F636B5F7461736B5FAC
:104A60006576656E745F68616E646C652067726FF1
:104A7000757020637265617465206661696C0A00F7
:104A80006D6F746F725F6C6F636B5F7461736B2EAD
:104A90006D6F746F725F6C6F636B5F7461736B5F6C
:104AA0006576656E745F68616E646C6520637265BF
:104AB00061746520737563636573730A0000000099
:104AC0001D4B00086D6F746F725F6C6F636B2074A9
:104AD00061736B207265676973746572206D6F74A2
:104AE0006F725F6C6F636B206461746120726561CB
:104AF00064206661696C2025640A0000D1400008CA
:104B00002879000863757272656E7420737461741D
:104B100075732069732025640A00000038B50022EF
:104B20000092642900D36421CAB20D4C0146201DB5
:104B300084F86820FBF746FB6A460121E06E02F02C
:104B40000FF900280AD00098002807D005494FF037
:104B500080500860BFF34F8FBFF36F8F38BD0000E8
:104B60009400002004ED00E008B50C4E0C4DE86EFA
:104B70000028FCD0002301220321009602F0F8F85F
:104B80000446C00704D095F86800291DFFF7D6FD3C
:104B9000A007ECD5FFF728FBE9E7000036894100C4
:104BA00094000020AFF3008010B55C2111A0FBF74A
:104BB0004CFB28B15C210FA0FBF747FB441C00E035
:104BC0000CA402F04BFC01461623224613A0FDF76D
:104BD0006BFF18A0FDF768FF194C0022402120460A
:104BE000FCF713F820460022BDE810408021FCF7B6
:104BF0000CB800002E2E5C6170706C696361746982
:104C00006F6E5C6D6F64756C655C6D6F746F725FF9
:104C10006D6F64756C652E63000000005B25752068
:104C20006D735D202573206C696E653A25752009CA
:104C3000000000006D6F746F722073746F700A0053
:104C400000040240F8B500268DF8006034465C216F
:104C500038A0FBF7FAFA28B15C2136A0FBF7F5FA89
:104C6000401C00E033A0054602F0F8FB0146572344
:104C70002A4637A0FDF718FF3BA0FDF715FF684651
:104C8000FFF742F99DF80000002851D05C2129A0CF
:104C9000FBF7DBFA28B15C2126A0FBF7D6FA401C13
:104CA00000E024A0044602F0D9FB0146602322461E
:104CB00027A0FDF7F9FE00229DF800102DA0FDF7BA
:104CC000F3FE324D012085F8716000F0B1FE002145
:104CD0009DF8000000F0F6FD0446022000F0A8FE5A
:104CE000012085F871009CB16846FFF70DF995F831
:104CF00070109DF8000000F0E5FD5C210DA0FBF7B1
:104D0000A4FA40B15C210BA0FBF79FFA451C03E01D
:104D100085F87060F1E707A502F0A0FB014671235A
:104D20002A460BA0FDF7C0FE214619A0FDF7BCFEE8
:104D30002046F8BD2E2E5C6170706C6963617469E9
:104D40006F6E5C6D6F746F725F6C6F636B2E630060
:104D50005B2575206D735D202573206C696E653A47
:104D600025752009000000006F70656E206C6F6370
:104D70006B0A000073657420737461747573202569
:104D80006420746F2025640A000000009400002055
:104D90006F70656E206C6F636B2072657475726ED8
:104DA0002025640A0000000010B500B9012001F0C0
:104DB00023FC002010BD10B501F086FE002010BDC0
:104DC00010B502F03DFB012803D0BDE8104002F011
:104DD0008DB810BD3EB504460D46B0F90800FFF78A
:104DE0008FFC02A9CDE90001208A2B4682B2D4E9CA
:104DF000001002F0F9FA012801D000203EBD02980F
:104E00003EBD00002DE9F0410026804634461B4D92
:104E100012E000BF04EB440000EBC40005EB80008F
:104E20000746827A001D4146FBF700FA10B9F86880
:104E300001268047641CE4B295F8BC01A042E9D881
:104E4000012E19D05C210EA0FBF7FFF928B15C21DF
:104E50000BA0FBF7FAF9401C00E009A0044602F0A1
:104E6000FDFA0146652322460CA0FDF71DFEBDE8B4
:104E7000F04110A0FDF718BEBDE8F081A0010020B0
:104E80002E2E5C6170706C69636174696F6E5C6317
:104E90006F6E736F6C652E63000000005B257520DC
:104EA0006D735D202573206C696E653A2575200948
:104EB00000000000636F6D6D6F6E642063616E2093
:104EC0006E6F7420666F756E640A00002DE9F04104
:104ED000184C0F460546E6682068001D01F010FAE0
:104EE00038B9206890F82C1001208840216981434E
:104EF0002161681C07D137B12168BDE8F0410E4837
:104F0000091D01F09BBA20683544B542456021680F
:104F100005D2206CBDE8F041091D01F077BAE06BC5
:104F2000091D01F073FAA06A854200D2A562BDE8AE
:104F3000F08100004C0100205C2500202DE9F041AB
:104F4000054601F087FA2E4CA068401CA06020683E
:104F50002C4F10B1606940B32DE02560A068012896
:104F600029D1002606EB860007EB800001F040FA0D
:104F7000761C072EF6D323488C3001F039FA2148ED
:104F8000A03001F035FA1F48B43001F031FA1D4865
:104F9000C83001F02DFA1B48DC3001F029FA19481D
:104FA0008C30E0631430206405E02068E96AC06A50
:104FB000884200D82560606A401C60626864E96AC3
:104FC0000120226988401043206101EB810007EB3A
:104FD0008000291D01F032FA01F05CFA60690028B6
:104FE0000CD02068E96AC06A884207D206494FF0AF
:104FF00080500860BFF34F8FBFF36F8FBDE8F08123
:105000004C0100208024002004ED00E010B501F0E8
:1050100021FA0E4C2068A0B90D4801F0E9F90C48BE
:10502000143001F0E5F90A48E060143020610022F4
:1050300010210A2001F070FF206010B105A101F0DD
:10504000A5FABDE8104001F025BA000020010020BB
:1050500008080020546D72510000000070B5114E18
:10506000114C17E001F0C4FD3068B8B102F02AFB22
:1050700001F0F0F9F068C568281D01F041F9A06859
:10508000401EA0606068401E606001F003FA284680
:1050900000F055F860680028E4D170BD02F012FB02
:1050A000F8E70000482500204C01002030B4026CD5
:1050B0000B46002A0BD0C1681144C1604468A1426C
:1050C00001D30168C16030BC1846FBF77BB830BC27
:1050D00070472DE9F041856B174604460026026CA7
:1050E00082B1C7B1E068FBF76DF8E168206C091A7E
:1050F000E1602268914202D26168081AE060022FE2
:1051000016D017E02068A8B9606802F019FA0646C0
:10511000002060600EE0A068FBF754F8216CA068E6
:105120000844A0606168884204D32068A06001E060
:1051300005B16D1E6D1CA5633046BDE8F08110B54C
:105140000446006B01F0BAF92046BDE8104001F0BA
:10515000B5B9000010484FF4E051420706D0C01D19
:105160000D4920F00700411AC1F5E0510B4A002318
:105170000144C2E900030839103A21F00701116027
:105180004B600B600B1AC0E9001393604FF00040B6
:105190005360D06070470000800800204401002068
:1051A000074C4FF08056074DFFF758FF2068012845
:1051B000FAD92E60BFF34F8FBFF36F8FF4E7000073
:1051C0008024002004ED00E02DE9F0470E46DDE9E3
:1051D00009841746824691009946089DA522206BB6
:1051E000FBF702F86FF00301206B01EB8701084425
:1051F00020F00707780707D0502080F31188BFF30D
:105200004F8FBFF36F8FFEE72218315C82F83410A6
:10521000315C11B1401C1028F6D3002684F843609D
:10522000072D00D30625E562C4E91356201D01F0C1
:10523000EAF804F1180001F0E6F82461C5F107006E
:105240006462A0616665A66584F85C604A46514662
:10525000384600F0A5FA2060B8F1000F01D0C8F878
:105260000040BDE8F087000030B5114900E011466C
:105270000A688242FBD34B685C18844203D14068C1
:1052800018444860084643681C18944209D1084CE9
:10529000103C2468A24209D052681A4442600A684D
:1052A00012680260814200D0086030BD0460F9E7F6
:1052B0004401002070B5002441600B4D0061914213
:1052C00006D8D11A8269914206D2011D286907E0E9
:1052D0009A4203D2994201D3012403E0011DE868F8
:1052E00001F094F8204670BD2001002010B504465E
:1052F00001F0B0F8A06B28B15FF0000401F0CAF82B
:10530000204610BD0124F9E72DE9F04781460868E1
:1053100092460C46002600B3606804F10805406818
:105320006060A84201D1416861606068D0F80C807B
:10533000606840686060A84201D14168616060684F
:1053400006EBC60109EB8101C768534601223846C6
:1053500001F0CEF9761C4745EAD13046BDE8F0872A
:1053600030B589B02F4D52E00498002806DADDE907
:105370000601059A90470498002848DB069C60695E
:1053800010B1201D00F0BCFF02A800F0B7F80246E3
:1053900004980A283BD2DFE800F00505053A2637D5
:1053A00005053A260598A169034601442046FFF702
:1053B00081FF00B3616A20468847E069012826D151
:1053C000002000900598A169002342181946204644
:1053D00002F0FEF978B9502080F31188BFF34F8FA7
:1053E000BFF36F8FFEE70598A06128B181181346BF
:1053F0002046FFF75FFF0AE0502080F31188BFF3DB
:105400004F8FBFF36F8FFEE7204601F057F8002360
:105410001A4604A9286801F0A9FD0028A4D109B002
:1054200030BD0000200100202DE9FC410F4605465B
:1054300001F0DEFB01A800F061F80446019818B104
:1054400002F040F9BDE8FC81224EAFB1306900683E
:10545000A8B30027291B3A46306801F0ABF802F0E8
:1054600031F90028EED11C494FF080500860BFF39D
:105470004F8FBFF36F8FE5E7A542EBD802F022F91B
:10548000F0682746C068C468201D00F039FFE06955
:10549000012810D1A0692B4641193A462046FFF752
:1054A00009FF40B100200346014600902A462046ED
:1054B00002F08EF920B1616A20468847C2E707E012
:1054C000502080F31188BFF34F8FBFF36F8FFEE73B
:1054D0000127BFE72001002004ED00E00648C16B72
:1054E000096829B1C16BC968C96849688162704798
:1054F0004FF0FF31FAE700004C01002070B505467F
:1055000001F0ACFF064E0446B068844203D200F0BE
:1055100009F8012000E0002028602046B46070BD3A
:1055200020010020F8B5194D1FE0C068C468066866
:10553000201D00F0E5FE616A20468847E0690128E9
:1055400013D1A0693044B04206D924616060211DA6
:10555000E86800F05BFF08E0002003460146009089
:105560003246204602F034F938B1E8680168002973
:10557000DBD12969C5E90310F8BD502080F31188FB
:10558000BFF34F8FBFF36F8FFEE7000020010020B5
:1055900008484068401C4FF0500080F3118804D048
:1055A000BFF34F8FBFF36F8FFEE7BFF34F8FBFF394
:1055B0006F8FFEE790010020002150B10A4B426935
:1055C0009A420FD1806AA3F1280290420AD040B1DA
:1055D00008E0502080F31188BFF34F8FBFF36F8F27
:1055E000FEE70121084670475C25002003460020A5
:1055F00012B1994302D070470B42FCD00120704792
:10560000074CE068016841B1C0680021D0F8000093
:10561000FFF70AFFFFF7A4FEF3E701210020F7E7F9
:10562000200100202DE9F041044600F013FF94F919
:10563000455004F1240609E0606A48B1304601F0A3
:10564000CBFF08B101F04CF96D1E6DB2002DF3DCFB
:105650004FF0FF3684F8456000F01CFF00F0FAFEC2
:1056600094F9445004F1100709E0206948B1384624
:1056700001F0B2FF08B101F033F96D1E6DB2002DDB
:10568000F3DC84F84460BDE8F04100F003BF10B5DE
:105690000446FAF7C2FD2046FAF7B8FD202101E0E2
:1056A0002154401C0F28FBD300212154204410BD5D
:1056B0002DE9F0410546002701F09AFA314E306895
:1056C00008B9FFF747FDF06805424BD1C5B308356F
:1056D00068070ED005F00700C0F108000544680710
:1056E00007D0502080F31188BFF34F8FBFF36F8F27
:1056F000FEE72DB37068854234D822481030014649
:105700000C6801E020460C466168A94202D221687B
:105710000029F7D131688C4224D0076821680160E4
:1057200060680837411B10290FD96019420708D05B
:10573000502080F31188BFF34F8FBFF36F8FFEE7C8
:1057400010E041606560FFF78FFD61687068401A86
:105750007060B268904200D2B060F06801430020EF
:10576000C4E9000101F0AEFF780707D0502080F3B4
:105770001188BFF34F8FBFF36F8FFEE73846BDE848
:10578000F0810000340100200449086818B108685D
:10579000026D521C02650868704700004C01002031
:1057A00010B5031F4FF080741C601B1F21F0010116
:1057B0001960191F024B0B60143940380A6010BD84
:1057C00091550008064A1178102906D2054B43F876
:1057D0002100491C1170002070476FF009007047CC
:1057E00014010020F404002070B511A3154A04210F
:1057F00015A0FDF7CDFF050019D05C2114A0FAF724
:1058000024FD28B15C2112A0FAF71FFD441C00E022
:105810000FA401F023FE01463023224613A0FDF71A
:1058200043F92946BDE8704016A0FDF73DB970BDAB
:105830006C69737420616C6C20636F6D6D6F6E6446
:1058400021000000E93F000868656C70000000005E
:105850002E2E5C6170706C69636174696F6E5C633D
:105860006F6E736F6C652E63000000005B25752002
:105870006D735D202573206C696E653A257520096E
:1058800000000000636F6E736F6C655F68656C701D
:105890005F7265676973746572206661696C202543
:1058A000640A0000064A1178022906D2131D43F843
:1058B0002100491C1170002070476FF009007047EB
:1058C000080100202DE9F3410024414F254644F60C
:1058D0002066002930D0012977D0022975D003290C
:1058E0000BD05C213BA0FAF7B0FC002861D05C2112
:1058F00038A0FAF7AAFC441C5CE00022402138469C
:10590000FBF783F9012280213846FBF77EF9052059
:1059100000F072FE6846FEF7F7FA641D9DF800007D
:10592000A4B2032802D0B442F1D901E0002500E07E
:10593000F225FFF739F948E09DF80000032804D06C
:10594000012802D002281BD03FE001224021384626
:10595000FBF75BF9002280213846FBF756F942F24B
:105960001075052000F048FE6846FEF7CDFA641D6C
:105970009DF80000A4B20028D8D0AC42F1D9D7E7F6
:10598000002240213846FBF740F9012280213846A9
:10599000FBF73BF9052000F02FFE6846FEF7B4FA4E
:1059A000641D9DF80000A4B20028BFD0B442F1D914
:1059B000BEE708A401F052FD01466F2322460FA066
:1059C000FDF772F813A0FDF76FF82846BDE8FC81DB
:1059D000000402402E2E5C6170706C696361746912
:1059E0006F6E5C6D6F64756C655C6D6F746F725F0C
:1059F0006D6F64756C652E63000000005B2575207B
:105A00006D735D202573206C696E653A25752009DC
:105A100000000000736574207374617475732069ED
:105A200073206E6F7420737570706F72740A00004B
:105A300010B5144B4FF4807101280CD002280CD003
:105A40005C2111A0FAF701FC68B15C210EA0FAF705
:105A5000FCFB441C08E0012200E00022BDE81040ED
:105A60001846FBF7D2B808A401F0F8FC014616234B
:105A700022460FA0FDF718F8BDE8104012A0FDF770
:105A800013B80000000002402E2E5C6170706C693B
:105A9000636174696F6E5C6D6F64756C655C737067
:105AA00065616B5F6D6F64756C652E63000000004F
:105AB0005B2575206D735D202573206C696E653ADA
:105AC00025752009000000007365742073706561FE
:105AD0006B206F75742070757420646F206E6F7406
